{
  "contractName": "School",
  "abi": [
    {
      "anonymous": false,
      "inputs": [
        {
          "indexed": true,
          "internalType": "address",
          "name": "student",
          "type": "address"
        }
      ],
      "name": "ApprovalReceived",
      "type": "event"
    },
    {
      "anonymous": false,
      "inputs": [
        {
          "indexed": true,
          "internalType": "address",
          "name": "student",
          "type": "address"
        }
      ],
      "name": "ApprovalReceivedA",
      "type": "event"
    },
    {
      "anonymous": false,
      "inputs": [
        {
          "indexed": true,
          "internalType": "address",
          "name": "student",
          "type": "address"
        }
      ],
      "name": "ApprovalReceivedAA",
      "type": "event"
    },
    {
      "anonymous": false,
      "inputs": [
        {
          "indexed": true,
          "internalType": "address",
          "name": "student",
          "type": "address"
        }
      ],
      "name": "ApprovalReceivedB",
      "type": "event"
    },
    {
      "anonymous": false,
      "inputs": [
        {
          "indexed": true,
          "internalType": "address",
          "name": "student",
          "type": "address"
        }
      ],
      "name": "ApprovalReceivedBB",
      "type": "event"
    },
    {
      "anonymous": false,
      "inputs": [
        {
          "indexed": true,
          "internalType": "address",
          "name": "student",
          "type": "address"
        }
      ],
      "name": "CourseApprovalReceivedC",
      "type": "event"
    },
    {
      "anonymous": false,
      "inputs": [
        {
          "indexed": true,
          "internalType": "address",
          "name": "student",
          "type": "address"
        }
      ],
      "name": "CourseApprovalReceivedD",
      "type": "event"
    },
    {
      "anonymous": false,
      "inputs": [
        {
          "indexed": true,
          "internalType": "address",
          "name": "student",
          "type": "address"
        }
      ],
      "name": "CourseApprovalRejectedC",
      "type": "event"
    },
    {
      "anonymous": false,
      "inputs": [
        {
          "indexed": true,
          "internalType": "address",
          "name": "student",
          "type": "address"
        }
      ],
      "name": "CourseApprovalRejectedD",
      "type": "event"
    },
    {
      "anonymous": false,
      "inputs": [
        {
          "indexed": true,
          "internalType": "address",
          "name": "student",
          "type": "address"
        },
        {
          "indexed": false,
          "internalType": "string",
          "name": "grade",
          "type": "string"
        }
      ],
      "name": "CourseGradeAssignedC",
      "type": "event"
    },
    {
      "anonymous": false,
      "inputs": [
        {
          "indexed": true,
          "internalType": "address",
          "name": "student",
          "type": "address"
        },
        {
          "indexed": false,
          "internalType": "string",
          "name": "grade",
          "type": "string"
        }
      ],
      "name": "CourseGradeAssignedD",
      "type": "event"
    },
    {
      "anonymous": false,
      "inputs": [
        {
          "indexed": true,
          "internalType": "address",
          "name": "student",
          "type": "address"
        },
        {
          "indexed": false,
          "internalType": "address",
          "name": "teacher",
          "type": "address"
        }
      ],
      "name": "CourseRequestApprovalC",
      "type": "event"
    },
    {
      "anonymous": false,
      "inputs": [
        {
          "indexed": true,
          "internalType": "address",
          "name": "student",
          "type": "address"
        },
        {
          "indexed": false,
          "internalType": "address",
          "name": "teacher",
          "type": "address"
        }
      ],
      "name": "CourseRequestApprovalD",
      "type": "event"
    },
    {
      "anonymous": false,
      "inputs": [
        {
          "indexed": true,
          "internalType": "address",
          "name": "student",
          "type": "address"
        },
        {
          "indexed": false,
          "internalType": "string",
          "name": "grade",
          "type": "string"
        }
      ],
      "name": "GradeAssigned",
      "type": "event"
    },
    {
      "anonymous": false,
      "inputs": [
        {
          "indexed": true,
          "internalType": "address",
          "name": "student",
          "type": "address"
        },
        {
          "indexed": false,
          "internalType": "string",
          "name": "grade",
          "type": "string"
        }
      ],
      "name": "GradeAssignedA",
      "type": "event"
    },
    {
      "anonymous": false,
      "inputs": [
        {
          "indexed": true,
          "internalType": "address",
          "name": "student",
          "type": "address"
        },
        {
          "indexed": false,
          "internalType": "string",
          "name": "grade",
          "type": "string"
        }
      ],
      "name": "GradeAssignedAA",
      "type": "event"
    },
    {
      "anonymous": false,
      "inputs": [
        {
          "indexed": true,
          "internalType": "address",
          "name": "student",
          "type": "address"
        },
        {
          "indexed": false,
          "internalType": "string",
          "name": "grade",
          "type": "string"
        }
      ],
      "name": "GradeAssignedB",
      "type": "event"
    },
    {
      "anonymous": false,
      "inputs": [
        {
          "indexed": true,
          "internalType": "address",
          "name": "student",
          "type": "address"
        },
        {
          "indexed": false,
          "internalType": "string",
          "name": "grade",
          "type": "string"
        }
      ],
      "name": "GradeAssignedBB",
      "type": "event"
    },
    {
      "anonymous": false,
      "inputs": [
        {
          "indexed": true,
          "internalType": "address",
          "name": "student",
          "type": "address"
        },
        {
          "indexed": false,
          "internalType": "address[]",
          "name": "teachers",
          "type": "address[]"
        }
      ],
      "name": "RequestApproval",
      "type": "event"
    },
    {
      "anonymous": false,
      "inputs": [
        {
          "indexed": true,
          "internalType": "address",
          "name": "student",
          "type": "address"
        },
        {
          "indexed": false,
          "internalType": "address[]",
          "name": "teachers",
          "type": "address[]"
        }
      ],
      "name": "RequestApprovalA",
      "type": "event"
    },
    {
      "anonymous": false,
      "inputs": [
        {
          "indexed": true,
          "internalType": "address",
          "name": "student",
          "type": "address"
        },
        {
          "indexed": false,
          "internalType": "address[]",
          "name": "teachers",
          "type": "address[]"
        }
      ],
      "name": "RequestApprovalAA",
      "type": "event"
    },
    {
      "anonymous": false,
      "inputs": [
        {
          "indexed": true,
          "internalType": "address",
          "name": "student",
          "type": "address"
        },
        {
          "indexed": false,
          "internalType": "address[]",
          "name": "teachers",
          "type": "address[]"
        }
      ],
      "name": "RequestApprovalB",
      "type": "event"
    },
    {
      "anonymous": false,
      "inputs": [
        {
          "indexed": true,
          "internalType": "address",
          "name": "student",
          "type": "address"
        },
        {
          "indexed": false,
          "internalType": "address[]",
          "name": "teachers",
          "type": "address[]"
        }
      ],
      "name": "RequestApprovalBB",
      "type": "event"
    },
    {
      "anonymous": false,
      "inputs": [
        {
          "indexed": true,
          "internalType": "address",
          "name": "student",
          "type": "address"
        },
        {
          "indexed": false,
          "internalType": "address",
          "name": "teacher",
          "type": "address"
        }
      ],
      "name": "TeacherAdded",
      "type": "event"
    },
    {
      "anonymous": false,
      "inputs": [
        {
          "indexed": true,
          "internalType": "address",
          "name": "student",
          "type": "address"
        },
        {
          "indexed": false,
          "internalType": "address",
          "name": "teacher",
          "type": "address"
        }
      ],
      "name": "TeacherAddedA",
      "type": "event"
    },
    {
      "anonymous": false,
      "inputs": [
        {
          "indexed": true,
          "internalType": "address",
          "name": "student",
          "type": "address"
        },
        {
          "indexed": false,
          "internalType": "address",
          "name": "teacher",
          "type": "address"
        }
      ],
      "name": "TeacherAddedAA",
      "type": "event"
    },
    {
      "anonymous": false,
      "inputs": [
        {
          "indexed": true,
          "internalType": "address",
          "name": "student",
          "type": "address"
        },
        {
          "indexed": false,
          "internalType": "address",
          "name": "teacher",
          "type": "address"
        }
      ],
      "name": "TeacherAddedB",
      "type": "event"
    },
    {
      "anonymous": false,
      "inputs": [
        {
          "indexed": true,
          "internalType": "address",
          "name": "student",
          "type": "address"
        },
        {
          "indexed": false,
          "internalType": "address",
          "name": "teacher",
          "type": "address"
        }
      ],
      "name": "TeacherAddedBB",
      "type": "event"
    },
    {
      "inputs": [
        {
          "internalType": "address[]",
          "name": "teachers",
          "type": "address[]"
        }
      ],
      "name": "requestApproval",
      "outputs": [],
      "stateMutability": "nonpayable",
      "type": "function"
    },
    {
      "inputs": [
        {
          "internalType": "address",
          "name": "student",
          "type": "address"
        }
      ],
      "name": "approveRequest",
      "outputs": [],
      "stateMutability": "nonpayable",
      "type": "function"
    },
    {
      "inputs": [
        {
          "internalType": "address",
          "name": "student",
          "type": "address"
        },
        {
          "internalType": "string",
          "name": "grade",
          "type": "string"
        }
      ],
      "name": "assignGrade",
      "outputs": [],
      "stateMutability": "nonpayable",
      "type": "function"
    },
    {
      "inputs": [
        {
          "internalType": "address",
          "name": "student",
          "type": "address"
        },
        {
          "internalType": "address",
          "name": "newTeacher",
          "type": "address"
        }
      ],
      "name": "addTeacherToRequest",
      "outputs": [],
      "stateMutability": "nonpayable",
      "type": "function"
    },
    {
      "inputs": [
        {
          "internalType": "address",
          "name": "student",
          "type": "address"
        }
      ],
      "name": "getStudentGrade",
      "outputs": [
        {
          "internalType": "string",
          "name": "",
          "type": "string"
        }
      ],
      "stateMutability": "view",
      "type": "function",
      "constant": true
    },
    {
      "inputs": [
        {
          "internalType": "address[]",
          "name": "teachers",
          "type": "address[]"
        }
      ],
      "name": "requestApprovalA",
      "outputs": [],
      "stateMutability": "nonpayable",
      "type": "function"
    },
    {
      "inputs": [
        {
          "internalType": "address",
          "name": "student",
          "type": "address"
        }
      ],
      "name": "approveRequestA",
      "outputs": [],
      "stateMutability": "nonpayable",
      "type": "function"
    },
    {
      "inputs": [
        {
          "internalType": "address",
          "name": "student",
          "type": "address"
        },
        {
          "internalType": "string",
          "name": "grade",
          "type": "string"
        }
      ],
      "name": "assignGradeA",
      "outputs": [],
      "stateMutability": "nonpayable",
      "type": "function"
    },
    {
      "inputs": [
        {
          "internalType": "address",
          "name": "student",
          "type": "address"
        },
        {
          "internalType": "address",
          "name": "newTeacher",
          "type": "address"
        }
      ],
      "name": "addTeacherToRequestA",
      "outputs": [],
      "stateMutability": "nonpayable",
      "type": "function"
    },
    {
      "inputs": [
        {
          "internalType": "address",
          "name": "student",
          "type": "address"
        }
      ],
      "name": "getStudentGradeA",
      "outputs": [
        {
          "internalType": "string",
          "name": "",
          "type": "string"
        }
      ],
      "stateMutability": "view",
      "type": "function",
      "constant": true
    },
    {
      "inputs": [
        {
          "internalType": "address[]",
          "name": "teachers",
          "type": "address[]"
        }
      ],
      "name": "requestApprovalB",
      "outputs": [],
      "stateMutability": "nonpayable",
      "type": "function"
    },
    {
      "inputs": [
        {
          "internalType": "address",
          "name": "student",
          "type": "address"
        }
      ],
      "name": "approveRequestB",
      "outputs": [],
      "stateMutability": "nonpayable",
      "type": "function"
    },
    {
      "inputs": [
        {
          "internalType": "address",
          "name": "student",
          "type": "address"
        },
        {
          "internalType": "string",
          "name": "grade",
          "type": "string"
        }
      ],
      "name": "assignGradeB",
      "outputs": [],
      "stateMutability": "nonpayable",
      "type": "function"
    },
    {
      "inputs": [
        {
          "internalType": "address",
          "name": "student",
          "type": "address"
        },
        {
          "internalType": "address",
          "name": "newTeacher",
          "type": "address"
        }
      ],
      "name": "addTeacherToRequestB",
      "outputs": [],
      "stateMutability": "nonpayable",
      "type": "function"
    },
    {
      "inputs": [
        {
          "internalType": "address",
          "name": "student",
          "type": "address"
        }
      ],
      "name": "getStudentGradeB",
      "outputs": [
        {
          "internalType": "string",
          "name": "",
          "type": "string"
        }
      ],
      "stateMutability": "view",
      "type": "function",
      "constant": true
    },
    {
      "inputs": [
        {
          "internalType": "address[]",
          "name": "teachers",
          "type": "address[]"
        }
      ],
      "name": "requestApprovalAA",
      "outputs": [],
      "stateMutability": "nonpayable",
      "type": "function"
    },
    {
      "inputs": [
        {
          "internalType": "address",
          "name": "student",
          "type": "address"
        }
      ],
      "name": "approveRequestAA",
      "outputs": [],
      "stateMutability": "nonpayable",
      "type": "function"
    },
    {
      "inputs": [
        {
          "internalType": "address",
          "name": "student",
          "type": "address"
        },
        {
          "internalType": "string",
          "name": "grade",
          "type": "string"
        }
      ],
      "name": "assignGradeAA",
      "outputs": [],
      "stateMutability": "nonpayable",
      "type": "function"
    },
    {
      "inputs": [
        {
          "internalType": "address",
          "name": "student",
          "type": "address"
        },
        {
          "internalType": "address",
          "name": "newTeacher",
          "type": "address"
        }
      ],
      "name": "addTeacherToRequestAA",
      "outputs": [],
      "stateMutability": "nonpayable",
      "type": "function"
    },
    {
      "inputs": [
        {
          "internalType": "address",
          "name": "student",
          "type": "address"
        }
      ],
      "name": "getStudentGradeAA",
      "outputs": [
        {
          "internalType": "string",
          "name": "",
          "type": "string"
        }
      ],
      "stateMutability": "view",
      "type": "function",
      "constant": true
    },
    {
      "inputs": [
        {
          "internalType": "address[]",
          "name": "teachers",
          "type": "address[]"
        }
      ],
      "name": "requestApprovalBB",
      "outputs": [],
      "stateMutability": "nonpayable",
      "type": "function"
    },
    {
      "inputs": [
        {
          "internalType": "address",
          "name": "student",
          "type": "address"
        }
      ],
      "name": "approveRequestBB",
      "outputs": [],
      "stateMutability": "nonpayable",
      "type": "function"
    },
    {
      "inputs": [
        {
          "internalType": "address",
          "name": "student",
          "type": "address"
        },
        {
          "internalType": "string",
          "name": "grade",
          "type": "string"
        }
      ],
      "name": "assignGradeBB",
      "outputs": [],
      "stateMutability": "nonpayable",
      "type": "function"
    },
    {
      "inputs": [
        {
          "internalType": "address",
          "name": "student",
          "type": "address"
        },
        {
          "internalType": "address",
          "name": "newTeacher",
          "type": "address"
        }
      ],
      "name": "addTeacherToRequestBB",
      "outputs": [],
      "stateMutability": "nonpayable",
      "type": "function"
    },
    {
      "inputs": [
        {
          "internalType": "address",
          "name": "student",
          "type": "address"
        }
      ],
      "name": "getStudentGradeBB",
      "outputs": [
        {
          "internalType": "string",
          "name": "",
          "type": "string"
        }
      ],
      "stateMutability": "view",
      "type": "function",
      "constant": true
    },
    {
      "inputs": [
        {
          "internalType": "address",
          "name": "teacher",
          "type": "address"
        }
      ],
      "name": "requestCourseApprovalC",
      "outputs": [],
      "stateMutability": "nonpayable",
      "type": "function"
    },
    {
      "inputs": [
        {
          "internalType": "address",
          "name": "student",
          "type": "address"
        }
      ],
      "name": "approveCourseRequestC",
      "outputs": [],
      "stateMutability": "nonpayable",
      "type": "function"
    },
    {
      "inputs": [
        {
          "internalType": "address",
          "name": "student",
          "type": "address"
        }
      ],
      "name": "rejectCourseRequestC",
      "outputs": [],
      "stateMutability": "nonpayable",
      "type": "function"
    },
    {
      "inputs": [
        {
          "internalType": "address",
          "name": "student",
          "type": "address"
        },
        {
          "internalType": "string",
          "name": "grade",
          "type": "string"
        }
      ],
      "name": "assignCourseGradeC",
      "outputs": [],
      "stateMutability": "nonpayable",
      "type": "function"
    },
    {
      "inputs": [
        {
          "internalType": "address",
          "name": "student",
          "type": "address"
        }
      ],
      "name": "getStudentGradeC",
      "outputs": [
        {
          "internalType": "string",
          "name": "",
          "type": "string"
        }
      ],
      "stateMutability": "view",
      "type": "function",
      "constant": true
    },
    {
      "inputs": [
        {
          "internalType": "address",
          "name": "student",
          "type": "address"
        }
      ],
      "name": "getCourseRequestStatusC",
      "outputs": [
        {
          "internalType": "enum School.ApplicationStatusC",
          "name": "",
          "type": "uint8"
        }
      ],
      "stateMutability": "view",
      "type": "function",
      "constant": true
    },
    {
      "inputs": [
        {
          "internalType": "address",
          "name": "teacher",
          "type": "address"
        }
      ],
      "name": "requestCourseApprovalD",
      "outputs": [],
      "stateMutability": "nonpayable",
      "type": "function"
    },
    {
      "inputs": [
        {
          "internalType": "address",
          "name": "student",
          "type": "address"
        }
      ],
      "name": "approveCourseRequestD",
      "outputs": [],
      "stateMutability": "nonpayable",
      "type": "function"
    },
    {
      "inputs": [
        {
          "internalType": "address",
          "name": "student",
          "type": "address"
        }
      ],
      "name": "rejectCourseRequestD",
      "outputs": [],
      "stateMutability": "nonpayable",
      "type": "function"
    },
    {
      "inputs": [
        {
          "internalType": "address",
          "name": "student",
          "type": "address"
        },
        {
          "internalType": "string",
          "name": "grade",
          "type": "string"
        }
      ],
      "name": "assignCourseGradeD",
      "outputs": [],
      "stateMutability": "nonpayable",
      "type": "function"
    },
    {
      "inputs": [
        {
          "internalType": "address",
          "name": "student",
          "type": "address"
        }
      ],
      "name": "getStudentGradeD",
      "outputs": [
        {
          "internalType": "string",
          "name": "",
          "type": "string"
        }
      ],
      "stateMutability": "view",
      "type": "function",
      "constant": true
    },
    {
      "inputs": [
        {
          "internalType": "address",
          "name": "student",
          "type": "address"
        }
      ],
      "name": "getCourseRequestStatusD",
      "outputs": [
        {
          "internalType": "enum School.ApplicationStatusD",
          "name": "",
          "type": "uint8"
        }
      ],
      "stateMutability": "view",
      "type": "function",
      "constant": true
    }
  ],
  "bytecode": "0x608060405234801561000f575f80fd5b50614a448061001d5f395ff3fe608060405234801561000f575f80fd5b5060043610610225575f3560e01c806379a0e5c51161012e578063d8b2a851116100b6578063e7b9269c1161007a578063e7b9269c14610635578063ee5eb13414610651578063f08233b31461066d578063fe8524a41461069d578063fea87040146106cd57610225565b8063d8b2a851146105a9578063d9c7cfe3146105c5578063de5f4144146105e1578063e23f09b0146105fd578063e31c75c31461061957610225565b8063ad0c1e59116100fd578063ad0c1e5914610509578063b0f23ca914610525578063bb6da72d14610541578063bfd3444d1461055d578063d27e208b1461057957610225565b806379a0e5c51461047157806390bc9d291461048d5780639f55bd4c146104a9578063a39c8645146104d957610225565b80633678146b116101b15780634d0aa0f5116101805780634d0aa0f5146103e55780635a8b1ec1146104015780635f062cf51461041d5780636a1aefd51461043957806373c5c1381461045557610225565b80633678146b146103615780633abcf8121461039157806342b44690146103ad578063435fa002146103c957610225565b80632678bd78116101f85780632678bd78146102c157806328966c2c146102dd5780632f275f5d146102f95780633006cbde14610315578063320287dc1461033157610225565b80630386280f14610229578063061dff9a14610259578063196183fd146102755780631f1cbb5a146102a5575b5f80fd5b610243600480360381019061023e9190613d1c565b6106e9565b6040516102509190613dd1565b60405180910390f35b610273600480360381019061026e9190613d1c565b6107b6565b005b61028f600480360381019061028a9190613d1c565b610977565b60405161029c9190613dd1565b60405180910390f35b6102bf60048036038101906102ba9190613e52565b610a44565b005b6102db60048036038101906102d69190613eaf565b610b6b565b005b6102f760048036038101906102f29190613d1c565b610cdd565b005b610313600480360381019061030e9190613d1c565b610e96565b005b61032f600480360381019061032a9190613d1c565b611058565b005b61034b60048036038101906103469190613d1c565b611211565b6040516103589190613dd1565b60405180910390f35b61037b60048036038101906103769190613d1c565b6112de565b6040516103889190613f60565b60405180910390f35b6103ab60048036038101906103a69190613d1c565b611333565b005b6103c760048036038101906103c29190613e52565b6114ec565b005b6103e360048036038101906103de9190613fce565b6116d6565b005b6103ff60048036038101906103fa9190613fce565b61177e565b005b61041b60048036038101906104169190613e52565b611826565b005b61043760048036038101906104329190613d1c565b61194c565b005b610453600480360381019061044e9190613e52565b611b0e565b005b61046f600480360381019061046a9190613eaf565b611c35565b005b61048b60048036038101906104869190613d1c565b611da9565b005b6104a760048036038101906104a29190613eaf565b611f90565b005b6104c360048036038101906104be9190613d1c565b612104565b6040516104d09190613dd1565b60405180910390f35b6104f360048036038101906104ee9190613d1c565b6121d1565b604051610500919061405f565b60405180910390f35b610523600480360381019061051e9190613d1c565b612226565b005b61053f600480360381019061053a9190613e52565b6123e8565b005b61055b60048036038101906105569190613e52565b6125d2565b005b61057760048036038101906105729190613eaf565b6126f9565b005b610593600480360381019061058e9190613d1c565b61286d565b6040516105a09190613dd1565b60405180910390f35b6105c360048036038101906105be9190613fce565b61293a565b005b6105df60048036038101906105da9190613fce565b6129e2565b005b6105fb60048036038101906105f69190613d1c565b612a8a565b005b61061760048036038101906106129190613d1c565b612c4c565b005b610633600480360381019061062e9190613fce565b612e05565b005b61064f600480360381019061064a9190613e52565b612eac565b005b61066b60048036038101906106669190613eaf565b612fd3565b005b61068760048036038101906106829190613d1c565b613147565b6040516106949190613dd1565b60405180910390f35b6106b760048036038101906106b29190613d1c565b613214565b6040516106c49190613dd1565b60405180910390f35b6106e760048036038101906106e29190613d1c565b6132e1565b005b606060015f8373ffffffffffffffffffffffffffffffffffffffff1673ffffffffffffffffffffffffffffffffffffffff1681526020019081526020015f208054610733906140a5565b80601f016020809104026020016040519081016040528092919081815260200182805461075f906140a5565b80156107aa5780601f10610781576101008083540402835291602001916107aa565b820191905f5260205f20905b81548152906001019060200180831161078d57829003601f168201915b50505050509050919050565b5f805f8373ffffffffffffffffffffffffffffffffffffffff1673ffffffffffffffffffffffffffffffffffffffff1681526020019081526020015f2090506107ff81336134c8565b61083e576040517f08c379a000000000000000000000000000000000000000000000000000000000815260040161083590614145565b60405180910390fd5b806001015f3373ffffffffffffffffffffffffffffffffffffffff1673ffffffffffffffffffffffffffffffffffffffff1681526020019081526020015f205f9054906101000a900460ff16156108ca576040517f08c379a00000000000000000000000000000000000000000000000000000000081526004016108c1906141ad565b60405180910390fd5b6001816001015f3373ffffffffffffffffffffffffffffffffffffffff1673ffffffffffffffffffffffffffffffffffffffff1681526020019081526020015f205f6101000a81548160ff02191690831515021790555061092a81613573565b15610973578173ffffffffffffffffffffffffffffffffffffffff167f135b662e7c460f01a8962dabbc952859694282ca1f1bfbacf24ebecc00160d3560405160405180910390a25b5050565b6060600d5f8373ffffffffffffffffffffffffffffffffffffffff1673ffffffffffffffffffffffffffffffffffffffff1681526020019081526020015f2080546109c1906140a5565b80601f01602080910402602001604051908101604052809291908181526020018280546109ed906140a5565b8015610a385780601f10610a0f57610100808354040283529160200191610a38565b820191905f5260205f20905b815481529060010190602001808311610a1b57829003601f168201915b50505050509050919050565b610a8a60085f8573ffffffffffffffffffffffffffffffffffffffff1673ffffffffffffffffffffffffffffffffffffffff1681526020019081526020015f203361363a565b610ac9576040517f08c379a0000000000000000000000000000000000000000000000000000000008152600401610ac09061423b565b60405180910390fd5b818160095f8673ffffffffffffffffffffffffffffffffffffffff1673ffffffffffffffffffffffffffffffffffffffff1681526020019081526020015f209182610b15929190614436565b508273ffffffffffffffffffffffffffffffffffffffff167feb8e62a50c30f6489be8d50167a3462addc9ad73df8926290e4cec0807f1ea408383604051610b5e92919061453d565b60405180910390a2505050565b610bb05f808473ffffffffffffffffffffffffffffffffffffffff1673ffffffffffffffffffffffffffffffffffffffff1681526020019081526020015f20336134c8565b610bef576040517f08c379a0000000000000000000000000000000000000000000000000000000008152600401610be6906145cf565b60405180910390fd5b5f808373ffffffffffffffffffffffffffffffffffffffff1673ffffffffffffffffffffffffffffffffffffffff1681526020019081526020015f205f0181908060018154018082558091505060019003905f5260205f20015f9091909190916101000a81548173ffffffffffffffffffffffffffffffffffffffff021916908373ffffffffffffffffffffffffffffffffffffffff1602179055508173ffffffffffffffffffffffffffffffffffffffff167f204441003a57494a754a9cb2c784ec3f7735d60cb84147b9c1771a891b56a69c82604051610cd191906145fc565b60405180910390a25050565b5f600a5f8373ffffffffffffffffffffffffffffffffffffffff1673ffffffffffffffffffffffffffffffffffffffff1681526020019081526020015f2090503373ffffffffffffffffffffffffffffffffffffffff16815f015f9054906101000a900473ffffffffffffffffffffffffffffffffffffffff1673ffffffffffffffffffffffffffffffffffffffff1614610dad576040517f08c379a0000000000000000000000000000000000000000000000000000000008152600401610da490614685565b60405180910390fd5b5f6002811115610dc057610dbf613eed565b5b815f0160149054906101000a900460ff166002811115610de357610de2613eed565b5b14610e23576040517f08c379a0000000000000000000000000000000000000000000000000000000008152600401610e1a906146ed565b60405180910390fd5b6002815f0160146101000a81548160ff02191690836002811115610e4a57610e49613eed565b5b02179055508173ffffffffffffffffffffffffffffffffffffffff167fd2798d53033833e061c21c36dca4b7351b3b41480b79668d288a8925ad023a5b60405160405180910390a25050565b5f60065f8373ffffffffffffffffffffffffffffffffffffffff1673ffffffffffffffffffffffffffffffffffffffff1681526020019081526020015f209050610ee081336136e5565b610f1f576040517f08c379a0000000000000000000000000000000000000000000000000000000008152600401610f1690614145565b60405180910390fd5b806001015f3373ffffffffffffffffffffffffffffffffffffffff1673ffffffffffffffffffffffffffffffffffffffff1681526020019081526020015f205f9054906101000a900460ff1615610fab576040517f08c379a0000000000000000000000000000000000000000000000000000000008152600401610fa2906141ad565b60405180910390fd5b6001816001015f3373ffffffffffffffffffffffffffffffffffffffff1673ffffffffffffffffffffffffffffffffffffffff1681526020019081526020015f205f6101000a81548160ff02191690831515021790555061100b81613790565b15611054578173ffffffffffffffffffffffffffffffffffffffff167f0a6450ee1867d8fdccb84077e28fe282ffa7eb7ea1c008aba388166b23298b3860405160405180910390a25b5050565b5f600c5f8373ffffffffffffffffffffffffffffffffffffffff1673ffffffffffffffffffffffffffffffffffffffff1681526020019081526020015f2090503373ffffffffffffffffffffffffffffffffffffffff16815f015f9054906101000a900473ffffffffffffffffffffffffffffffffffffffff1673ffffffffffffffffffffffffffffffffffffffff1614611128576040517f08c379a000000000000000000000000000000000000000000000000000000000815260040161111f90614685565b60405180910390fd5b5f600281111561113b5761113a613eed565b5b815f0160149054906101000a900460ff16600281111561115e5761115d613eed565b5b1461119e576040517f08c379a0000000000000000000000000000000000000000000000000000000008152600401611195906146ed565b60405180910390fd5b6002815f0160146101000a81548160ff021916908360028111156111c5576111c4613eed565b5b02179055508173ffffffffffffffffffffffffffffffffffffffff167f81df7b0c58592f04882b796296bee22cf9397cb128a8d5143d5c1212b0e683c260405160405180910390a25050565b606060095f8373ffffffffffffffffffffffffffffffffffffffff1673ffffffffffffffffffffffffffffffffffffffff1681526020019081526020015f20805461125b906140a5565b80601f0160208091040260200160405190810160405280929190818152602001828054611287906140a5565b80156112d25780601f106112a9576101008083540402835291602001916112d2565b820191905f5260205f20905b8154815290600101906020018083116112b557829003601f168201915b50505050509050919050565b5f600a5f8373ffffffffffffffffffffffffffffffffffffffff1673ffffffffffffffffffffffffffffffffffffffff1681526020019081526020015f205f0160149054906101000a900460ff169050919050565b5f600c5f8373ffffffffffffffffffffffffffffffffffffffff1673ffffffffffffffffffffffffffffffffffffffff1681526020019081526020015f2090503373ffffffffffffffffffffffffffffffffffffffff16815f015f9054906101000a900473ffffffffffffffffffffffffffffffffffffffff1673ffffffffffffffffffffffffffffffffffffffff1614611403576040517f08c379a00000000000000000000000000000000000000000000000000000000081526004016113fa9061477b565b60405180910390fd5b5f600281111561141657611415613eed565b5b815f0160149054906101000a900460ff16600281111561143957611438613eed565b5b14611479576040517f08c379a0000000000000000000000000000000000000000000000000000000008152600401611470906146ed565b60405180910390fd5b6001815f0160146101000a81548160ff021916908360028111156114a05761149f613eed565b5b02179055508173ffffffffffffffffffffffffffffffffffffffff167f2fc4583fdf9c66581b1ff1a30306b3bcdeb9d1f3bd837545b21d071f084553fc60405160405180910390a25050565b5f600c5f8573ffffffffffffffffffffffffffffffffffffffff1673ffffffffffffffffffffffffffffffffffffffff1681526020019081526020015f2090503373ffffffffffffffffffffffffffffffffffffffff16815f015f9054906101000a900473ffffffffffffffffffffffffffffffffffffffff1673ffffffffffffffffffffffffffffffffffffffff16146115bc576040517f08c379a00000000000000000000000000000000000000000000000000000000081526004016115b39061423b565b60405180910390fd5b600160028111156115d0576115cf613eed565b5b815f0160149054906101000a900460ff1660028111156115f3576115f2613eed565b5b14611633576040517f08c379a000000000000000000000000000000000000000000000000000000000815260040161162a90614809565b60405180910390fd5b8282600d5f8773ffffffffffffffffffffffffffffffffffffffff1673ffffffffffffffffffffffffffffffffffffffff1681526020019081526020015f20918261167f929190614436565b508373ffffffffffffffffffffffffffffffffffffffff167f21d58b8f0ed19ff38448577ae43e5dd28dc7e2033fa993126db8a3aa2c1f5a2784846040516116c892919061453d565b60405180910390a250505050565b5f60065f3373ffffffffffffffffffffffffffffffffffffffff1673ffffffffffffffffffffffffffffffffffffffff1681526020019081526020015f2090508282825f019190611728929190613c02565b503373ffffffffffffffffffffffffffffffffffffffff167fa4c61070d4c75911d382171c39a883315d1f19feeb619becd0b5cab7f6f76b0684846040516117719291906148e3565b60405180910390a2505050565b5f60085f3373ffffffffffffffffffffffffffffffffffffffff1673ffffffffffffffffffffffffffffffffffffffff1681526020019081526020015f2090508282825f0191906117d0929190613c02565b503373ffffffffffffffffffffffffffffffffffffffff167f861bdc84fe3d56fc2f6a420bafb1a5b06ed6a9781e3f215398866a7611cb417484846040516118199291906148e3565b60405180910390a2505050565b61186b5f808573ffffffffffffffffffffffffffffffffffffffff1673ffffffffffffffffffffffffffffffffffffffff1681526020019081526020015f20336134c8565b6118aa576040517f08c379a00000000000000000000000000000000000000000000000000000000081526004016118a19061423b565b60405180910390fd5b818160015f8673ffffffffffffffffffffffffffffffffffffffff1673ffffffffffffffffffffffffffffffffffffffff1681526020019081526020015f2091826118f6929190614436565b508273ffffffffffffffffffffffffffffffffffffffff167fb985e1dd664378ed80837e5c5cea748608e873f2df5fa08fafeb9734f15a5504838360405161193f92919061453d565b60405180910390a2505050565b5f60045f8373ffffffffffffffffffffffffffffffffffffffff1673ffffffffffffffffffffffffffffffffffffffff1681526020019081526020015f2090506119968133613857565b6119d5576040517f08c379a00000000000000000000000000000000000000000000000000000000081526004016119cc90614145565b60405180910390fd5b806001015f3373ffffffffffffffffffffffffffffffffffffffff1673ffffffffffffffffffffffffffffffffffffffff1681526020019081526020015f205f9054906101000a900460ff1615611a61576040517f08c379a0000000000000000000000000000000000000000000000000000000008152600401611a58906141ad565b60405180910390fd5b6001816001015f3373ffffffffffffffffffffffffffffffffffffffff1673ffffffffffffffffffffffffffffffffffffffff1681526020019081526020015f205f6101000a81548160ff021916908315150217905550611ac181613902565b15611b0a578173ffffffffffffffffffffffffffffffffffffffff167fb21a33de8fe04dbcce329b986d588ff4dd1bd80c72dc83e276b40ca415208e4b60405160405180910390a25b5050565b611b5460065f8573ffffffffffffffffffffffffffffffffffffffff1673ffffffffffffffffffffffffffffffffffffffff1681526020019081526020015f20336136e5565b611b93576040517f08c379a0000000000000000000000000000000000000000000000000000000008152600401611b8a9061423b565b60405180910390fd5b818160075f8673ffffffffffffffffffffffffffffffffffffffff1673ffffffffffffffffffffffffffffffffffffffff1681526020019081526020015f209182611bdf929190614436565b508273ffffffffffffffffffffffffffffffffffffffff167f67201b0783d100f361e02bb1c52d3fd4cf42da2f382fd9375c953c5d43b879578383604051611c2892919061453d565b60405180910390a2505050565b611c7b60085f8473ffffffffffffffffffffffffffffffffffffffff1673ffffffffffffffffffffffffffffffffffffffff1681526020019081526020015f203361363a565b611cba576040517f08c379a0000000000000000000000000000000000000000000000000000000008152600401611cb1906145cf565b60405180910390fd5b60085f8373ffffffffffffffffffffffffffffffffffffffff1673ffffffffffffffffffffffffffffffffffffffff1681526020019081526020015f205f0181908060018154018082558091505060019003905f5260205f20015f9091909190916101000a81548173ffffffffffffffffffffffffffffffffffffffff021916908373ffffffffffffffffffffffffffffffffffffffff1602179055508173ffffffffffffffffffffffffffffffffffffffff167f6c1db8768c6dabf293f85486474c930c116bd69e07755ec274ac25e260cb0a8282604051611d9d91906145fc565b60405180910390a25050565b5f6002811115611dbc57611dbb613eed565b5b600c5f3373ffffffffffffffffffffffffffffffffffffffff1673ffffffffffffffffffffffffffffffffffffffff1681526020019081526020015f205f0160149054906101000a900460ff166002811115611e1b57611e1a613eed565b5b14611e5b576040517f08c379a0000000000000000000000000000000000000000000000000000000008152600401611e529061494f565b60405180910390fd5b80600c5f3373ffffffffffffffffffffffffffffffffffffffff1673ffffffffffffffffffffffffffffffffffffffff1681526020019081526020015f205f015f6101000a81548173ffffffffffffffffffffffffffffffffffffffff021916908373ffffffffffffffffffffffffffffffffffffffff1602179055505f600c5f3373ffffffffffffffffffffffffffffffffffffffff1673ffffffffffffffffffffffffffffffffffffffff1681526020019081526020015f205f0160146101000a81548160ff02191690836002811115611f3a57611f39613eed565b5b02179055503373ffffffffffffffffffffffffffffffffffffffff167f306f3b20602ff8d9f40e74b8a9f1df6e0c848918638468949add3b565eb90fe482604051611f8591906145fc565b60405180910390a250565b611fd660025f8473ffffffffffffffffffffffffffffffffffffffff1673ffffffffffffffffffffffffffffffffffffffff1681526020019081526020015f20336139c9565b612015576040517f08c379a000000000000000000000000000000000000000000000000000000000815260040161200c906145cf565b60405180910390fd5b60025f8373ffffffffffffffffffffffffffffffffffffffff1673ffffffffffffffffffffffffffffffffffffffff1681526020019081526020015f205f0181908060018154018082558091505060019003905f5260205f20015f9091909190916101000a81548173ffffffffffffffffffffffffffffffffffffffff021916908373ffffffffffffffffffffffffffffffffffffffff1602179055508173ffffffffffffffffffffffffffffffffffffffff167f2e8fd5f0318dc9a800ec4fba2263e018727cc76472477ce42ab3d5faee169dda826040516120f891906145fc565b60405180910390a25050565b6060600b5f8373ffffffffffffffffffffffffffffffffffffffff1673ffffffffffffffffffffffffffffffffffffffff1681526020019081526020015f20805461214e906140a5565b80601f016020809104026020016040519081016040528092919081815260200182805461217a906140a5565b80156121c55780601f1061219c576101008083540402835291602001916121c5565b820191905f5260205f20905b8154815290600101906020018083116121a857829003601f168201915b50505050509050919050565b5f600c5f8373ffffffffffffffffffffffffffffffffffffffff1673ffffffffffffffffffffffffffffffffffffffff1681526020019081526020015f205f0160149054906101000a900460ff169050919050565b5f60085f8373ffffffffffffffffffffffffffffffffffffffff1673ffffffffffffffffffffffffffffffffffffffff1681526020019081526020015f209050612270813361363a565b6122af576040517f08c379a00000000000000000000000000000000000000000000000000000000081526004016122a690614145565b60405180910390fd5b806001015f3373ffffffffffffffffffffffffffffffffffffffff1673ffffffffffffffffffffffffffffffffffffffff1681526020019081526020015f205f9054906101000a900460ff161561233b576040517f08c379a0000000000000000000000000000000000000000000000000000000008152600401612332906141ad565b60405180910390fd5b6001816001015f3373ffffffffffffffffffffffffffffffffffffffff1673ffffffffffffffffffffffffffffffffffffffff1681526020019081526020015f205f6101000a81548160ff02191690831515021790555061239b81613a74565b156123e4578173ffffffffffffffffffffffffffffffffffffffff167f916f9fa9e8e47ced4658d551ed1203171944c91e985d614fcde71196dde65ffd60405160405180910390a25b5050565b5f600a5f8573ffffffffffffffffffffffffffffffffffffffff1673ffffffffffffffffffffffffffffffffffffffff1681526020019081526020015f2090503373ffffffffffffffffffffffffffffffffffffffff16815f015f9054906101000a900473ffffffffffffffffffffffffffffffffffffffff1673ffffffffffffffffffffffffffffffffffffffff16146124b8576040517f08c379a00000000000000000000000000000000000000000000000000000000081526004016124af9061423b565b60405180910390fd5b600160028111156124cc576124cb613eed565b5b815f0160149054906101000a900460ff1660028111156124ef576124ee613eed565b5b1461252f576040517f08c379a000000000000000000000000000000000000000000000000000000000815260040161252690614809565b60405180910390fd5b8282600b5f8773ffffffffffffffffffffffffffffffffffffffff1673ffffffffffffffffffffffffffffffffffffffff1681526020019081526020015f20918261257b929190614436565b508373ffffffffffffffffffffffffffffffffffffffff167fe15fd402de383a34edf04a4ba2baf582ca7367486fbc0bce9d80fedcc05e245084846040516125c492919061453d565b60405180910390a250505050565b61261860045f8573ffffffffffffffffffffffffffffffffffffffff1673ffffffffffffffffffffffffffffffffffffffff1681526020019081526020015f2033613857565b612657576040517f08c379a000000000000000000000000000000000000000000000000000000000815260040161264e9061423b565b60405180910390fd5b818160055f8673ffffffffffffffffffffffffffffffffffffffff1673ffffffffffffffffffffffffffffffffffffffff1681526020019081526020015f2091826126a3929190614436565b508273ffffffffffffffffffffffffffffffffffffffff167f1ad90776b0d9e66d1aac975f6b86603dd871c1fb79336518d0299266858ee1ce83836040516126ec92919061453d565b60405180910390a2505050565b61273f60045f8473ffffffffffffffffffffffffffffffffffffffff1673ffffffffffffffffffffffffffffffffffffffff1681526020019081526020015f2033613857565b61277e576040517f08c379a0000000000000000000000000000000000000000000000000000000008152600401612775906145cf565b60405180910390fd5b60045f8373ffffffffffffffffffffffffffffffffffffffff1673ffffffffffffffffffffffffffffffffffffffff1681526020019081526020015f205f0181908060018154018082558091505060019003905f5260205f20015f9091909190916101000a81548173ffffffffffffffffffffffffffffffffffffffff021916908373ffffffffffffffffffffffffffffffffffffffff1602179055508173ffffffffffffffffffffffffffffffffffffffff167f77750ee71fb69a09491e1f793264aed6c70bfac637392b91e8c1990fa11143e68260405161286191906145fc565b60405180910390a25050565b606060035f8373ffffffffffffffffffffffffffffffffffffffff1673ffffffffffffffffffffffffffffffffffffffff1681526020019081526020015f2080546128b7906140a5565b80601f01602080910402602001604051908101604052809291908181526020018280546128e3906140a5565b801561292e5780601f106129055761010080835404028352916020019161292e565b820191905f5260205f20905b81548152906001019060200180831161291157829003601f168201915b50505050509050919050565b5f60025f3373ffffffffffffffffffffffffffffffffffffffff1673ffffffffffffffffffffffffffffffffffffffff1681526020019081526020015f2090508282825f01919061298c929190613c02565b503373ffffffffffffffffffffffffffffffffffffffff167fb5e1d2c128d1a38eab0571f11ba7c1861dccce7e686a2c29e93d2a69619037fb84846040516129d59291906148e3565b60405180910390a2505050565b5f60045f3373ffffffffffffffffffffffffffffffffffffffff1673ffffffffffffffffffffffffffffffffffffffff1681526020019081526020015f2090508282825f019190612a34929190613c02565b503373ffffffffffffffffffffffffffffffffffffffff167f3a5b1a517fae5590c0ca6030e531b3653c75a12f1f06180fbf3020926757bc0c8484604051612a7d9291906148e3565b60405180910390a2505050565b5f60025f8373ffffffffffffffffffffffffffffffffffffffff1673ffffffffffffffffffffffffffffffffffffffff1681526020019081526020015f209050612ad481336139c9565b612b13576040517f08c379a0000000000000000000000000000000000000000000000000000000008152600401612b0a90614145565b60405180910390fd5b806001015f3373ffffffffffffffffffffffffffffffffffffffff1673ffffffffffffffffffffffffffffffffffffffff1681526020019081526020015f205f9054906101000a900460ff1615612b9f576040517f08c379a0000000000000000000000000000000000000000000000000000000008152600401612b96906141ad565b60405180910390fd5b6001816001015f3373ffffffffffffffffffffffffffffffffffffffff1673ffffffffffffffffffffffffffffffffffffffff1681526020019081526020015f205f6101000a81548160ff021916908315150217905550612bff81613b3b565b15612c48578173ffffffffffffffffffffffffffffffffffffffff167f18aa802269279979c463982c18d111b257d5a341edd7b51d2649a920de036fb060405160405180910390a25b5050565b5f600a5f8373ffffffffffffffffffffffffffffffffffffffff1673ffffffffffffffffffffffffffffffffffffffff1681526020019081526020015f2090503373ffffffffffffffffffffffffffffffffffffffff16815f015f9054906101000a900473ffffffffffffffffffffffffffffffffffffffff1673ffffffffffffffffffffffffffffffffffffffff1614612d1c576040517f08c379a0000000000000000000000000000000000000000000000000000000008152600401612d139061477b565b60405180910390fd5b5f6002811115612d2f57612d2e613eed565b5b815f0160149054906101000a900460ff166002811115612d5257612d51613eed565b5b14612d92576040517f08c379a0000000000000000000000000000000000000000000000000000000008152600401612d89906146ed565b60405180910390fd5b6001815f0160146101000a81548160ff02191690836002811115612db957612db8613eed565b5b02179055508173ffffffffffffffffffffffffffffffffffffffff167f6d9a734ebbd4820f0f7a76656fbc5936e01fd7f5ceef1bede69734a5a32b33a960405160405180910390a25050565b5f805f3373ffffffffffffffffffffffffffffffffffffffff1673ffffffffffffffffffffffffffffffffffffffff1681526020019081526020015f2090508282825f019190612e56929190613c02565b503373ffffffffffffffffffffffffffffffffffffffff167f57eebaf6a4a7bdcd3e1a60dd32681c63d968f8935f596ee7a4523e5fa6c36db68484604051612e9f9291906148e3565b60405180910390a2505050565b612ef260025f8573ffffffffffffffffffffffffffffffffffffffff1673ffffffffffffffffffffffffffffffffffffffff1681526020019081526020015f20336139c9565b612f31576040517f08c379a0000000000000000000000000000000000000000000000000000000008152600401612f289061423b565b60405180910390fd5b818160035f8673ffffffffffffffffffffffffffffffffffffffff1673ffffffffffffffffffffffffffffffffffffffff1681526020019081526020015f209182612f7d929190614436565b508273ffffffffffffffffffffffffffffffffffffffff167fa1933c0b818e7a4323c347fdedcfd86e92e8a178de060ac5527b01fa98a4a96e8383604051612fc692919061453d565b60405180910390a2505050565b61301960065f8473ffffffffffffffffffffffffffffffffffffffff1673ffffffffffffffffffffffffffffffffffffffff1681526020019081526020015f20336136e5565b613058576040517f08c379a000000000000000000000000000000000000000000000000000000000815260040161304f906145cf565b60405180910390fd5b60065f8373ffffffffffffffffffffffffffffffffffffffff1673ffffffffffffffffffffffffffffffffffffffff1681526020019081526020015f205f0181908060018154018082558091505060019003905f5260205f20015f9091909190916101000a81548173ffffffffffffffffffffffffffffffffffffffff021916908373ffffffffffffffffffffffffffffffffffffffff1602179055508173ffffffffffffffffffffffffffffffffffffffff167f64e1ecc85803a20ad58996c19c57ea71b5257de738143745f105ab85a0af03d68260405161313b91906145fc565b60405180910390a25050565b606060075f8373ffffffffffffffffffffffffffffffffffffffff1673ffffffffffffffffffffffffffffffffffffffff1681526020019081526020015f208054613191906140a5565b80601f01602080910402602001604051908101604052809291908181526020018280546131bd906140a5565b80156132085780601f106131df57610100808354040283529160200191613208565b820191905f5260205f20905b8154815290600101906020018083116131eb57829003601f168201915b50505050509050919050565b606060055f8373ffffffffffffffffffffffffffffffffffffffff1673ffffffffffffffffffffffffffffffffffffffff1681526020019081526020015f20805461325e906140a5565b80601f016020809104026020016040519081016040528092919081815260200182805461328a906140a5565b80156132d55780601f106132ac576101008083540402835291602001916132d5565b820191905f5260205f20905b8154815290600101906020018083116132b857829003601f168201915b50505050509050919050565b5f60028111156132f4576132f3613eed565b5b600a5f3373ffffffffffffffffffffffffffffffffffffffff1673ffffffffffffffffffffffffffffffffffffffff1681526020019081526020015f205f0160149054906101000a900460ff16600281111561335357613352613eed565b5b14613393576040517f08c379a000000000000000000000000000000000000000000000000000000000815260040161338a9061494f565b60405180910390fd5b80600a5f3373ffffffffffffffffffffffffffffffffffffffff1673ffffffffffffffffffffffffffffffffffffffff1681526020019081526020015f205f015f6101000a81548173ffffffffffffffffffffffffffffffffffffffff021916908373ffffffffffffffffffffffffffffffffffffffff1602179055505f600a5f3373ffffffffffffffffffffffffffffffffffffffff1673ffffffffffffffffffffffffffffffffffffffff1681526020019081526020015f205f0160146101000a81548160ff0219169083600281111561347257613471613eed565b5b02179055503373ffffffffffffffffffffffffffffffffffffffff167f74ff87eb585eb1582ae401757bf0a46b90f6bc695bbc61c80987b657dbf2399b826040516134bd91906145fc565b60405180910390a250565b5f805f90505b835f0180549050811015613568578273ffffffffffffffffffffffffffffffffffffffff16845f0182815481106135085761350761496d565b5b905f5260205f20015f9054906101000a900473ffffffffffffffffffffffffffffffffffffffff1673ffffffffffffffffffffffffffffffffffffffff160361355557600191505061356d565b8080613560906149c7565b9150506134ce565b505f90505b92915050565b5f805f90505b825f018054905081101561362f57826001015f845f0183815481106135a1576135a061496d565b5b905f5260205f20015f9054906101000a900473ffffffffffffffffffffffffffffffffffffffff1673ffffffffffffffffffffffffffffffffffffffff1673ffffffffffffffffffffffffffffffffffffffff1681526020019081526020015f205f9054906101000a900460ff1661361c575f915050613635565b8080613627906149c7565b915050613579565b50600190505b919050565b5f805f90505b835f01805490508110156136da578273ffffffffffffffffffffffffffffffffffffffff16845f01828154811061367a5761367961496d565b5b905f5260205f20015f9054906101000a900473ffffffffffffffffffffffffffffffffffffffff1673ffffffffffffffffffffffffffffffffffffffff16036136c75760019150506136df565b80806136d2906149c7565b915050613640565b505f90505b92915050565b5f805f90505b835f0180549050811015613785578273ffffffffffffffffffffffffffffffffffffffff16845f0182815481106137255761372461496d565b5b905f5260205f20015f9054906101000a900473ffffffffffffffffffffffffffffffffffffffff1673ffffffffffffffffffffffffffffffffffffffff160361377257600191505061378a565b808061377d906149c7565b9150506136eb565b505f90505b92915050565b5f805f90505b825f018054905081101561384c57826001015f845f0183815481106137be576137bd61496d565b5b905f5260205f20015f9054906101000a900473ffffffffffffffffffffffffffffffffffffffff1673ffffffffffffffffffffffffffffffffffffffff1673ffffffffffffffffffffffffffffffffffffffff1681526020019081526020015f205f9054906101000a900460ff16613839575f915050613852565b8080613844906149c7565b915050613796565b50600190505b919050565b5f805f90505b835f01805490508110156138f7578273ffffffffffffffffffffffffffffffffffffffff16845f0182815481106138975761389661496d565b5b905f5260205f20015f9054906101000a900473ffffffffffffffffffffffffffffffffffffffff1673ffffffffffffffffffffffffffffffffffffffff16036138e45760019150506138fc565b80806138ef906149c7565b91505061385d565b505f90505b92915050565b5f805f90505b825f01805490508110156139be57826001015f845f0183815481106139305761392f61496d565b5b905f5260205f20015f9054906101000a900473ffffffffffffffffffffffffffffffffffffffff1673ffffffffffffffffffffffffffffffffffffffff1673ffffffffffffffffffffffffffffffffffffffff1681526020019081526020015f205f9054906101000a900460ff166139ab575f9150506139c4565b80806139b6906149c7565b915050613908565b50600190505b919050565b5f805f90505b835f0180549050811015613a69578273ffffffffffffffffffffffffffffffffffffffff16845f018281548110613a0957613a0861496d565b5b905f5260205f20015f9054906101000a900473ffffffffffffffffffffffffffffffffffffffff1673ffffffffffffffffffffffffffffffffffffffff1603613a56576001915050613a6e565b8080613a61906149c7565b9150506139cf565b505f90505b92915050565b5f805f90505b825f0180549050811015613b3057826001015f845f018381548110613aa257613aa161496d565b5b905f5260205f20015f9054906101000a900473ffffffffffffffffffffffffffffffffffffffff1673ffffffffffffffffffffffffffffffffffffffff1673ffffffffffffffffffffffffffffffffffffffff1681526020019081526020015f205f9054906101000a900460ff16613b1d575f915050613b36565b8080613b28906149c7565b915050613a7a565b50600190505b919050565b5f805f90505b825f0180549050811015613bf757826001015f845f018381548110613b6957613b6861496d565b5b905f5260205f20015f9054906101000a900473ffffffffffffffffffffffffffffffffffffffff1673ffffffffffffffffffffffffffffffffffffffff1673ffffffffffffffffffffffffffffffffffffffff1681526020019081526020015f205f9054906101000a900460ff16613be4575f915050613bfd565b8080613bef906149c7565b915050613b41565b50600190505b919050565b828054828255905f5260205f20908101928215613c8e579160200282015b82811115613c8d57823573ffffffffffffffffffffffffffffffffffffffff16825f6101000a81548173ffffffffffffffffffffffffffffffffffffffff021916908373ffffffffffffffffffffffffffffffffffffffff16021790555091602001919060010190613c20565b5b509050613c9b9190613c9f565b5090565b5b80821115613cb6575f815f905550600101613ca0565b5090565b5f80fd5b5f80fd5b5f73ffffffffffffffffffffffffffffffffffffffff82169050919050565b5f613ceb82613cc2565b9050919050565b613cfb81613ce1565b8114613d05575f80fd5b50565b5f81359050613d1681613cf2565b92915050565b5f60208284031215613d3157613d30613cba565b5b5f613d3e84828501613d08565b91505092915050565b5f81519050919050565b5f82825260208201905092915050565b5f5b83811015613d7e578082015181840152602081019050613d63565b5f8484015250505050565b5f601f19601f8301169050919050565b5f613da382613d47565b613dad8185613d51565b9350613dbd818560208601613d61565b613dc681613d89565b840191505092915050565b5f6020820190508181035f830152613de98184613d99565b905092915050565b5f80fd5b5f80fd5b5f80fd5b5f8083601f840112613e1257613e11613df1565b5b8235905067ffffffffffffffff811115613e2f57613e2e613df5565b5b602083019150836001820283011115613e4b57613e4a613df9565b5b9250929050565b5f805f60408486031215613e6957613e68613cba565b5b5f613e7686828701613d08565b935050602084013567ffffffffffffffff811115613e9757613e96613cbe565b5b613ea386828701613dfd565b92509250509250925092565b5f8060408385031215613ec557613ec4613cba565b5b5f613ed285828601613d08565b9250506020613ee385828601613d08565b9150509250929050565b7f4e487b71000000000000000000000000000000000000000000000000000000005f52602160045260245ffd5b60038110613f2b57613f2a613eed565b5b50565b5f819050613f3b82613f1a565b919050565b5f613f4a82613f2e565b9050919050565b613f5a81613f40565b82525050565b5f602082019050613f735f830184613f51565b92915050565b5f8083601f840112613f8e57613f8d613df1565b5b8235905067ffffffffffffffff811115613fab57613faa613df5565b5b602083019150836020820283011115613fc757613fc6613df9565b5b9250929050565b5f8060208385031215613fe457613fe3613cba565b5b5f83013567ffffffffffffffff81111561400157614000613cbe565b5b61400d85828601613f79565b92509250509250929050565b6003811061402a57614029613eed565b5b50565b5f81905061403a82614019565b919050565b5f6140498261402d565b9050919050565b6140598161403f565b82525050565b5f6020820190506140725f830184614050565b92915050565b7f4e487b71000000000000000000000000000000000000000000000000000000005f52602260045260245ffd5b5f60028204905060018216806140bc57607f821691505b6020821081036140cf576140ce614078565b5b50919050565b7f4f6e6c792072657175657374656420746561636865722063616e20617070726f5f8201527f76652e0000000000000000000000000000000000000000000000000000000000602082015250565b5f61412f602383613d51565b915061413a826140d5565b604082019050919050565b5f6020820190508181035f83015261415c81614123565b9050919050565b7f546561636865722068617320616c726561647920617070726f7665642e0000005f82015250565b5f614197601d83613d51565b91506141a282614163565b602082019050919050565b5f6020820190508181035f8301526141c48161418b565b9050919050565b7f4f6e6c792061737369676e656420746561636865722063616e2061737369676e5f8201527f2067726164652e00000000000000000000000000000000000000000000000000602082015250565b5f614225602783613d51565b9150614230826141cb565b604082019050919050565b5f6020820190508181035f83015261425281614219565b9050919050565b5f82905092915050565b7f4e487b71000000000000000000000000000000000000000000000000000000005f52604160045260245ffd5b5f819050815f5260205f209050919050565b5f6020601f8301049050919050565b5f82821b905092915050565b5f600883026142ec7fffffffffffffffffffffffffffffffffffffffffffffffffffffffffffffffff826142b1565b6142f686836142b1565b95508019841693508086168417925050509392505050565b5f819050919050565b5f819050919050565b5f61433a6143356143308461430e565b614317565b61430e565b9050919050565b5f819050919050565b61435383614320565b61436761435f82614341565b8484546142bd565b825550505050565b5f90565b61437b61436f565b61438681848461434a565b505050565b5b818110156143a95761439e5f82614373565b60018101905061438c565b5050565b601f8211156143ee576143bf81614290565b6143c8846142a2565b810160208510156143d7578190505b6143eb6143e3856142a2565b83018261438b565b50505b505050565b5f82821c905092915050565b5f61440e5f19846008026143f3565b1980831691505092915050565b5f61442683836143ff565b9150826002028217905092915050565b6144408383614259565b67ffffffffffffffff81111561445957614458614263565b5b61446382546140a5565b61446e8282856143ad565b5f601f83116001811461449b575f8415614489578287013590505b614493858261441b565b8655506144fa565b601f1984166144a986614290565b5f5b828110156144d0578489013582556001820191506020850194506020810190506144ab565b868310156144ed57848901356144e9601f8916826143ff565b8355505b6001600288020188555050505b50505050505050565b828183375f83830152505050565b5f61451c8385613d51565b9350614529838584614503565b61453283613d89565b840190509392505050565b5f6020820190508181035f830152614556818486614511565b90509392505050565b7f4f6e6c792061737369676e656420746561636865722063616e2061646420616e5f8201527f6f7468657220746561636865722e000000000000000000000000000000000000602082015250565b5f6145b9602e83613d51565b91506145c48261455f565b604082019050919050565b5f6020820190508181035f8301526145e6816145ad565b9050919050565b6145f681613ce1565b82525050565b5f60208201905061460f5f8301846145ed565b92915050565b7f4f6e6c792061737369676e656420746561636865722063616e2072656a6563745f8201527f2e00000000000000000000000000000000000000000000000000000000000000602082015250565b5f61466f602183613d51565b915061467a82614615565b604082019050919050565b5f6020820190508181035f83015261469c81614663565b9050919050565b7f4170706c69636174696f6e20616c72656164792070726f6365737365642e00005f82015250565b5f6146d7601e83613d51565b91506146e2826146a3565b602082019050919050565b5f6020820190508181035f830152614704816146cb565b9050919050565b7f4f6e6c792061737369676e656420746561636865722063616e20617070726f765f8201527f652e000000000000000000000000000000000000000000000000000000000000602082015250565b5f614765602283613d51565b91506147708261470b565b604082019050919050565b5f6020820190508181035f83015261479281614759565b9050919050565b7f53747564656e74206d75737420626520617070726f76656420746f20617373695f8201527f676e2067726164652e0000000000000000000000000000000000000000000000602082015250565b5f6147f3602983613d51565b91506147fe82614799565b604082019050919050565b5f6020820190508181035f830152614820816147e7565b9050919050565b5f82825260208201905092915050565b5f819050919050565b61484981613ce1565b82525050565b5f61485a8383614840565b60208301905092915050565b5f6148746020840184613d08565b905092915050565b5f602082019050919050565b5f6148938385614827565b935061489e82614837565b805f5b858110156148d6576148b38284614866565b6148bd888261484f565b97506148c88361487c565b9250506001810190506148a1565b5085925050509392505050565b5f6020820190508181035f8301526148fc818486614888565b90509392505050565b7f4170706c69636174696f6e20616c7265616479207375626d69747465640000005f82015250565b5f614939601d83613d51565b915061494482614905565b602082019050919050565b5f6020820190508181035f8301526149668161492d565b9050919050565b7f4e487b71000000000000000000000000000000000000000000000000000000005f52603260045260245ffd5b7f4e487b71000000000000000000000000000000000000000000000000000000005f52601160045260245ffd5b5f6149d18261430e565b91507fffffffffffffffffffffffffffffffffffffffffffffffffffffffffffffffff8203614a0357614a0261499a565b5b60018201905091905056fea26469706673582212207e2a604ef93c0786065ab8594ec4afd4c71f44e79f625468cd8ab13d2c145a2f64736f6c63430008140033",
  "immutableReferences": {},
  "source": "// SPDX-License-Identifier: MIT\npragma solidity ^0.8.0;\ncontract School {\n    event RequestApproval(address indexed student, address[] teachers);\n    event ApprovalReceived(address indexed student);\n    event GradeAssigned(address indexed student, string grade);\n    event TeacherAdded(address indexed student, address teacher);\n    struct Request {\n        address[] teachers;\n        mapping(address => bool) approvals;\n    } \n    \n    mapping(address => Request) private requests;\n    mapping(address => string) private studentGrades;\n\n    function requestApproval(address[] calldata teachers) external {\n        Request storage newRequest = requests[msg.sender];\n        newRequest.teachers = teachers;\n        emit RequestApproval(msg.sender, teachers);\n    }\n\n    function approveRequest(address student) external {\n        Request storage request = requests[student];\n        require(isTeacher(request, msg.sender), \"Only requested teacher can approve.\");\n        require(!request.approvals[msg.sender], \"Teacher has already approved.\");\n\n        request.approvals[msg.sender] = true;\n\n        if(isApproved(request)) {\n            emit ApprovalReceived(student);\n        }\n    }\n\n    function assignGrade(address student, string calldata grade) external {\n        require(isTeacher(requests[student], msg.sender), \"Only assigned teacher can assign grade.\");\n        studentGrades[student] = grade;\n        emit GradeAssigned(student, grade);\n    }\n\n    function addTeacherToRequest(address student, address newTeacher) external {\n        require(isTeacher(requests[student], msg.sender), \"Only assigned teacher can add another teacher.\");\n        requests[student].teachers.push(newTeacher);\n        emit TeacherAdded(student, newTeacher);\n    }\n\n    function isTeacher(Request storage request, address teacher) private view returns(bool) {\n        for(uint i = 0; i < request.teachers.length; i++) {\n            if(request.teachers[i] == teacher) {\n                return true;\n            }\n        }\n        return false;\n    }\n\n    function isApproved(Request storage request) private view returns(bool) {\n        for(uint i = 0; i < request.teachers.length; i++) {\n            if(!request.approvals[request.teachers[i]]) {\n                return false;\n            }\n        }\n        return true;\n    }\n\n    function getStudentGrade(address student) external view returns (string memory) {\n        return studentGrades[student];\n    }\n\n\n    event RequestApprovalA(address indexed student, address[] teachers);\n    event ApprovalReceivedA(address indexed student);\n    event GradeAssignedA(address indexed student, string grade);\n    event TeacherAddedA(address indexed student, address teacher);\n    struct RequestA {\n        address[] teachers;\n        mapping(address => bool) approvals;\n    } \n    \n    mapping(address => RequestA) private requestsA;\n    mapping(address => string) private studentGradesA;\n\n    function requestApprovalA(address[] calldata teachers) external {\n        RequestA storage newRequestA = requestsA[msg.sender];\n        newRequestA.teachers = teachers;\n        emit RequestApprovalA(msg.sender, teachers);\n    }\n\n    function approveRequestA(address student) external {\n        RequestA storage requestA = requestsA[student];\n        require(isTeacherA(requestA, msg.sender), \"Only requested teacher can approve.\");\n        require(!requestA.approvals[msg.sender], \"Teacher has already approved.\");\n\n        requestA.approvals[msg.sender] = true;\n\n        if(isApprovedA(requestA)) {\n            emit ApprovalReceivedA(student);\n        }\n    }\n\n    function assignGradeA(address student, string calldata grade) external {\n        require(isTeacherA(requestsA[student], msg.sender), \"Only assigned teacher can assign grade.\");\n        studentGradesA[student] = grade;\n        emit GradeAssignedA(student, grade);\n    }\n\n    function addTeacherToRequestA(address student, address newTeacher) external {\n        require(isTeacherA(requestsA[student], msg.sender), \"Only assigned teacher can add another teacher.\");\n        requestsA[student].teachers.push(newTeacher);\n        emit TeacherAddedA(student, newTeacher);\n    }\n\n    function isTeacherA(RequestA storage requestA, address teacher) private view returns(bool) {\n        for(uint i = 0; i < requestA.teachers.length; i++) {\n            if(requestA.teachers[i] == teacher) {\n                return true;\n            }\n        }\n        return false;\n    }\n\n    function isApprovedA(RequestA storage requestA) private view returns(bool) {\n        for(uint i = 0; i < requestA.teachers.length; i++) {\n            if(!requestA.approvals[requestA.teachers[i]]) {\n                return false;\n            }\n        }\n        return true;\n    }\n\n    function getStudentGradeA(address student) external view returns (string memory) {\n        return studentGradesA[student];\n    }\n\n\n    event RequestApprovalB(address indexed student, address[] teachers);\n    event ApprovalReceivedB(address indexed student);\n    event GradeAssignedB(address indexed student, string grade);\n    event TeacherAddedB(address indexed student, address teacher);\n    struct RequestB {\n        address[] teachers;\n        mapping(address => bool) approvals;\n    } \n    \n    mapping(address => RequestB) private requestsB;\n    mapping(address => string) private studentGradesB;\n\n    function requestApprovalB(address[] calldata teachers) external {\n        RequestB storage newRequestB = requestsB[msg.sender];\n        newRequestB.teachers = teachers;\n        emit RequestApprovalB(msg.sender, teachers);\n    }\n\n    function approveRequestB(address student) external {\n        RequestB storage requestB = requestsB[student];\n        require(isTeacherB(requestB, msg.sender), \"Only requested teacher can approve.\");\n        require(!requestB.approvals[msg.sender], \"Teacher has already approved.\");\n\n        requestB.approvals[msg.sender] = true;\n\n        if(isApprovedB(requestB)) {\n            emit ApprovalReceivedB(student);\n        }\n    }\n\n    function assignGradeB(address student, string calldata grade) external {\n        require(isTeacherB(requestsB[student], msg.sender), \"Only assigned teacher can assign grade.\");\n        studentGradesB[student] = grade;\n        emit GradeAssignedB(student, grade);\n    }\n\n    function addTeacherToRequestB(address student, address newTeacher) external {\n        require(isTeacherB(requestsB[student], msg.sender), \"Only assigned teacher can add another teacher.\");\n        requestsB[student].teachers.push(newTeacher);\n        emit TeacherAddedB(student, newTeacher);\n    }\n\n    function isTeacherB(RequestB storage requestB, address teacher) private view returns(bool) {\n        for(uint i = 0; i < requestB.teachers.length; i++) {\n            if(requestB.teachers[i] == teacher) {\n                return true;\n            }\n        }\n        return false;\n    }\n\n    function isApprovedB(RequestB storage requestB) private view returns(bool) {\n        for(uint i = 0; i < requestB.teachers.length; i++) {\n            if(!requestB.approvals[requestB.teachers[i]]) {\n                return false;\n            }\n        }\n        return true;\n    }\n\n    function getStudentGradeB(address student) external view returns (string memory) {\n        return studentGradesB[student];\n    }\n\n\n    event RequestApprovalAA(address indexed student, address[] teachers);\n    event ApprovalReceivedAA(address indexed student);\n    event GradeAssignedAA(address indexed student, string grade);\n    event TeacherAddedAA(address indexed student, address teacher);\n    struct RequestAA {\n        address[] teachers;\n        mapping(address => bool) approvals;\n    } \n    \n    mapping(address => RequestAA) private requestsAA;\n    mapping(address => string) private studentGradesAA;\n\n    function requestApprovalAA(address[] calldata teachers) external {\n        RequestAA storage newRequestAA = requestsAA[msg.sender];\n        newRequestAA.teachers = teachers;\n        emit RequestApprovalAA(msg.sender, teachers);\n    }\n\n    function approveRequestAA(address student) external {\n        RequestAA storage requestAA = requestsAA[student];\n        require(isTeacherAA(requestAA, msg.sender), \"Only requested teacher can approve.\");\n        require(!requestAA.approvals[msg.sender], \"Teacher has already approved.\");\n\n        requestAA.approvals[msg.sender] = true;\n\n        if(isApprovedAA(requestAA)) {\n            emit ApprovalReceivedAA(student);\n        }\n    }\n\n    function assignGradeAA(address student, string calldata grade) external {\n        require(isTeacherAA(requestsAA[student], msg.sender), \"Only assigned teacher can assign grade.\");\n        studentGradesAA[student] = grade;\n        emit GradeAssignedAA(student, grade);\n    }\n\n    function addTeacherToRequestAA(address student, address newTeacher) external {\n        require(isTeacherAA(requestsAA[student], msg.sender), \"Only assigned teacher can add another teacher.\");\n        requestsAA[student].teachers.push(newTeacher);\n        emit TeacherAddedAA(student, newTeacher);\n    }\n\n    function isTeacherAA(RequestAA storage requestAA, address teacher) private view returns(bool) {\n        for(uint i = 0; i < requestAA.teachers.length; i++) {\n            if(requestAA.teachers[i] == teacher) {\n                return true;\n            }\n        }\n        return false;\n    }\n\n    function isApprovedAA(RequestAA storage requestAA) private view returns(bool) {\n        for(uint i = 0; i < requestAA.teachers.length; i++) {\n            if(!requestAA.approvals[requestAA.teachers[i]]) {\n                return false;\n            }\n        }\n        return true;\n    }\n\n    function getStudentGradeAA(address student) external view returns (string memory) {\n        return studentGradesAA[student];\n    }\n\n    event RequestApprovalBB(address indexed student, address[] teachers);\n    event ApprovalReceivedBB(address indexed student);\n    event GradeAssignedBB(address indexed student, string grade);\n    event TeacherAddedBB(address indexed student, address teacher);\n    struct RequestBB {\n        address[] teachers;\n        mapping(address => bool) approvals;\n    } \n    \n    mapping(address => RequestBB) private requestsBB;\n    mapping(address => string) private studentGradesBB;\n\n    function requestApprovalBB(address[] calldata teachers) external {\n        RequestBB storage newRequestBB = requestsBB[msg.sender];\n        newRequestBB.teachers = teachers;\n        emit RequestApprovalBB(msg.sender, teachers);\n    }\n\n    function approveRequestBB(address student) external {\n        RequestBB storage requestBB = requestsBB[student];\n        require(isTeacherBB(requestBB, msg.sender), \"Only requested teacher can approve.\");\n        require(!requestBB.approvals[msg.sender], \"Teacher has already approved.\");\n\n        requestBB.approvals[msg.sender] = true;\n\n        if(isApprovedBB(requestBB)) {\n            emit ApprovalReceivedBB(student);\n        }\n    }\n\n    function assignGradeBB(address student, string calldata grade) external {\n        require(isTeacherBB(requestsBB[student], msg.sender), \"Only assigned teacher can assign grade.\");\n        studentGradesBB[student] = grade;\n        emit GradeAssignedBB(student, grade);\n    }\n\n    function addTeacherToRequestBB(address student, address newTeacher) external {\n        require(isTeacherBB(requestsBB[student], msg.sender), \"Only assigned teacher can add another teacher.\");\n        requestsBB[student].teachers.push(newTeacher);\n        emit TeacherAddedBB(student, newTeacher);\n    }\n\n    function isTeacherBB(RequestBB storage requestBB, address teacher) private view returns(bool) {\n        for(uint i = 0; i < requestBB.teachers.length; i++) {\n            if(requestBB.teachers[i] == teacher) {\n                return true;\n            }\n        }\n        return false;\n    }\n\n    function isApprovedBB(RequestBB storage requestBB) private view returns(bool) {\n        for(uint i = 0; i < requestBB.teachers.length; i++) {\n            if(!requestBB.approvals[requestBB.teachers[i]]) {\n                return false;\n            }\n        }\n        return true;\n    }\n\n    function getStudentGradeBB(address student) external view returns (string memory) {\n        return studentGradesBB[student];\n    }\n\n    event CourseRequestApprovalC(address indexed student, address teacher);\n    event CourseApprovalReceivedC(address indexed student);\n    event CourseApprovalRejectedC(address indexed student);\n    event CourseGradeAssignedC(address indexed student, string grade);\n\n    enum ApplicationStatusC { Pending, Approved, Rejected }\n\n\n    struct CourseRequestC {\n        address teacher;\n        ApplicationStatusC status;\n    } \n    \n    mapping(address => CourseRequestC) private courseRequestsC;\n    mapping(address => string) private studentGradesC;\n\n    function requestCourseApprovalC(address teacher) external {\n        //require(teacher != address(0), \"Invalid teacher address\");\n        require(courseRequestsC[msg.sender].status == ApplicationStatusC.Pending, \"Application already submitted\");\n        courseRequestsC[msg.sender].teacher = teacher;\n        courseRequestsC[msg.sender].status = ApplicationStatusC.Pending;\n        emit CourseRequestApprovalC(msg.sender, teacher);\n    }\n\n    function approveCourseRequestC(address student) external {\n        CourseRequestC storage requestC = courseRequestsC[student];\n        require(requestC.teacher == msg.sender, \"Only assigned teacher can approve.\");\n        require(requestC.status == ApplicationStatusC.Pending, \"Application already processed.\");\n\n        requestC.status = ApplicationStatusC.Approved;\n        emit CourseApprovalReceivedC(student);\n    }\n\n    function rejectCourseRequestC(address student) external {\n        CourseRequestC storage requestC = courseRequestsC[student];\n        require(requestC.teacher == msg.sender, \"Only assigned teacher can reject.\");\n        require(requestC.status == ApplicationStatusC.Pending, \"Application already processed.\");\n\n        requestC.status = ApplicationStatusC.Rejected;\n        emit CourseApprovalRejectedC(student);\n    }\n\n    function assignCourseGradeC(address student, string calldata grade) external {\n        CourseRequestC storage requestC = courseRequestsC[student];\n        require(requestC.teacher == msg.sender, \"Only assigned teacher can assign grade.\");\n        require(requestC.status == ApplicationStatusC.Approved, \"Student must be approved to assign grade.\");\n\n        studentGradesC[student]= grade;\n        emit CourseGradeAssignedC(student, grade);\n    }\n\n    function isTeacherC(address teacher, address student) private view returns(bool) {\n        return courseRequestsC[student].teacher == teacher;\n    }\n\n    function getStudentGradeC(address student) external view returns (string memory) {\n        return studentGradesC[student];\n    }\n\n    function getCourseRequestStatusC(address student) external view returns (ApplicationStatusC) {\n        return courseRequestsC[student].status;\n    }\n\n    event CourseRequestApprovalD(address indexed student, address teacher);\n    event CourseApprovalReceivedD(address indexed student);\n    event CourseApprovalRejectedD(address indexed student);\n    event CourseGradeAssignedD(address indexed student, string grade);\n\n    enum ApplicationStatusD { Pending, Approved, Rejected }\n\n\n    struct CourseRequestD {\n        address teacher;\n        ApplicationStatusD status;\n    } \n    \n    mapping(address => CourseRequestD) private courseRequestsD;\n    mapping(address => string) private studentGradesD;\n\n    function requestCourseApprovalD(address teacher) external {\n        //require(teacher != address(0), \"Invalid teacher address\");\n        require(courseRequestsD[msg.sender].status == ApplicationStatusD.Pending, \"Application already submitted\");\n        courseRequestsD[msg.sender].teacher = teacher;\n        courseRequestsD[msg.sender].status = ApplicationStatusD.Pending;\n        emit CourseRequestApprovalD(msg.sender, teacher);\n    }\n\n    function approveCourseRequestD(address student) external {\n        CourseRequestD storage requestD = courseRequestsD[student];\n        require(requestD.teacher == msg.sender, \"Only assigned teacher can approve.\");\n        require(requestD.status == ApplicationStatusD.Pending, \"Application already processed.\");\n\n        requestD.status = ApplicationStatusD.Approved;\n        emit CourseApprovalReceivedD(student);\n    }\n\n    function rejectCourseRequestD(address student) external {\n        CourseRequestD storage requestD = courseRequestsD[student];\n        require(requestD.teacher == msg.sender, \"Only assigned teacher can reject.\");\n        require(requestD.status == ApplicationStatusD.Pending, \"Application already processed.\");\n\n        requestD.status = ApplicationStatusD.Rejected;\n        emit CourseApprovalRejectedD(student);\n    }\n\n    function assignCourseGradeD(address student, string calldata grade) external {\n        CourseRequestD storage requestD = courseRequestsD[student];\n        require(requestD.teacher == msg.sender, \"Only assigned teacher can assign grade.\");\n        require(requestD.status == ApplicationStatusD.Approved, \"Student must be approved to assign grade.\");\n\n        studentGradesD[student]= grade;\n        emit CourseGradeAssignedD(student, grade);\n    }\n\n    function isTeacherD(address teacher, address student) private view returns(bool) {\n        return courseRequestsD[student].teacher == teacher;\n    }\n\n    function getStudentGradeD(address student) external view returns (string memory) {\n        return studentGradesD[student];\n    }\n\n    function getCourseRequestStatusD(address student) external view returns (ApplicationStatusD) {\n        return courseRequestsD[student].status;\n    }\n}\n\n\n// pragma solidity ^0.8.0;\n\n// contract School {\n//     event RequestApproval(address indexed student, address[] teachers);\n//     event ApprovalReceived(address indexed student);\n\n//     struct Request {\n//         address[] teachers;\n//         mapping(address => bool) approvals;\n//     } \n    \n//     mapping(address => Request) private requests;\n\n//     function requestApproval(address[] calldata teachers) external {\n//         Request storage newRequest = requests[msg.sender];\n//         newRequest.teachers = teachers;\n//         emit RequestApproval(msg.sender, teachers);\n//     }\n\n//     function approveRequest(address student) external {\n//         Request storage request = requests[student];\n//         require(isTeacher(request, msg.sender), \"Only requested teacher can approve.\");\n//         require(!request.approvals[msg.sender], \"Teacher has already approved.\");\n\n//         request.approvals[msg.sender] = true;\n\n//         if(isApproved(request)) {\n//             emit ApprovalReceived(student);\n//         }\n//     }\n\n//     function isTeacher(Request storage request, address teacher) private view returns(bool) {\n//         for(uint i = 0; i < request.teachers.length; i++) {\n//             if(request.teachers[i] == teacher) {\n//                 return true;\n//             }\n//         }\n//         return false;\n//     }\n\n//     function isApproved(Request storage request) private view returns(bool) {\n//         for(uint i = 0; i < request.teachers.length; i++) {\n//             if(!request.approvals[request.teachers[i]]) {\n//                 return false;\n//             }\n//         }\n//         return true;\n//     }\n// }\n",
  "sourcePath": "/Users/sirshendu/codes/contract-v2/contracts/School.sol",
  "compiler": {
    "name": "solc",
    "version": "0.8.20+commit.a1b79de6.Emscripten.clang"
  },
  "schemaVersion": "3.4.14",
  "updatedAt": "2023-09-03T00:10:25.737Z",
  "networkType": "ethereum",
  "devdoc": {
    "kind": "dev",
    "methods": {},
    "version": 1
  },
  "userdoc": {
    "kind": "user",
    "methods": {},
    "version": 1
  }
}