{
  "contractName": "School",
  "abi": [
    {
      "anonymous": false,
      "inputs": [
        {
          "indexed": true,
          "internalType": "address",
          "name": "student",
          "type": "address"
        }
      ],
      "name": "ApprovalReceived",
      "type": "event"
    },
    {
      "anonymous": false,
      "inputs": [
        {
          "indexed": true,
          "internalType": "address",
          "name": "student",
          "type": "address"
        }
      ],
      "name": "ApprovalReceivedA",
      "type": "event"
    },
    {
      "anonymous": false,
      "inputs": [
        {
          "indexed": true,
          "internalType": "address",
          "name": "student",
          "type": "address"
        }
      ],
      "name": "ApprovalReceivedAA",
      "type": "event"
    },
    {
      "anonymous": false,
      "inputs": [
        {
          "indexed": true,
          "internalType": "address",
          "name": "student",
          "type": "address"
        }
      ],
      "name": "ApprovalReceivedB",
      "type": "event"
    },
    {
      "anonymous": false,
      "inputs": [
        {
          "indexed": true,
          "internalType": "address",
          "name": "student",
          "type": "address"
        }
      ],
      "name": "ApprovalReceivedBB",
      "type": "event"
    },
    {
      "anonymous": false,
      "inputs": [
        {
          "indexed": true,
          "internalType": "address",
          "name": "student",
          "type": "address"
        }
      ],
      "name": "ApprovalReceivedF",
      "type": "event"
    },
    {
      "anonymous": false,
      "inputs": [
        {
          "indexed": true,
          "internalType": "address",
          "name": "student",
          "type": "address"
        },
        {
          "indexed": true,
          "internalType": "address",
          "name": "teacher",
          "type": "address"
        },
        {
          "indexed": false,
          "internalType": "string",
          "name": "comment",
          "type": "string"
        }
      ],
      "name": "CommentAddedF",
      "type": "event"
    },
    {
      "anonymous": false,
      "inputs": [
        {
          "indexed": true,
          "internalType": "address",
          "name": "student",
          "type": "address"
        }
      ],
      "name": "CourseApprovalReceivedC",
      "type": "event"
    },
    {
      "anonymous": false,
      "inputs": [
        {
          "indexed": true,
          "internalType": "address",
          "name": "student",
          "type": "address"
        }
      ],
      "name": "CourseApprovalReceivedD",
      "type": "event"
    },
    {
      "anonymous": false,
      "inputs": [
        {
          "indexed": true,
          "internalType": "address",
          "name": "student",
          "type": "address"
        }
      ],
      "name": "CourseApprovalReceivedDD",
      "type": "event"
    },
    {
      "anonymous": false,
      "inputs": [
        {
          "indexed": true,
          "internalType": "address",
          "name": "student",
          "type": "address"
        }
      ],
      "name": "CourseApprovalRejectedC",
      "type": "event"
    },
    {
      "anonymous": false,
      "inputs": [
        {
          "indexed": true,
          "internalType": "address",
          "name": "student",
          "type": "address"
        }
      ],
      "name": "CourseApprovalRejectedD",
      "type": "event"
    },
    {
      "anonymous": false,
      "inputs": [
        {
          "indexed": true,
          "internalType": "address",
          "name": "student",
          "type": "address"
        }
      ],
      "name": "CourseApprovalRejectedDD",
      "type": "event"
    },
    {
      "anonymous": false,
      "inputs": [
        {
          "indexed": true,
          "internalType": "address",
          "name": "student",
          "type": "address"
        },
        {
          "indexed": false,
          "internalType": "string",
          "name": "grade",
          "type": "string"
        }
      ],
      "name": "CourseGradeAssignedC",
      "type": "event"
    },
    {
      "anonymous": false,
      "inputs": [
        {
          "indexed": true,
          "internalType": "address",
          "name": "student",
          "type": "address"
        },
        {
          "indexed": false,
          "internalType": "string",
          "name": "grade",
          "type": "string"
        }
      ],
      "name": "CourseGradeAssignedD",
      "type": "event"
    },
    {
      "anonymous": false,
      "inputs": [
        {
          "indexed": true,
          "internalType": "address",
          "name": "student",
          "type": "address"
        },
        {
          "indexed": false,
          "internalType": "string",
          "name": "grade",
          "type": "string"
        }
      ],
      "name": "CourseGradeAssignedDD",
      "type": "event"
    },
    {
      "anonymous": false,
      "inputs": [
        {
          "indexed": true,
          "internalType": "address",
          "name": "student",
          "type": "address"
        },
        {
          "indexed": false,
          "internalType": "address",
          "name": "teacher",
          "type": "address"
        }
      ],
      "name": "CourseRequestApprovalC",
      "type": "event"
    },
    {
      "anonymous": false,
      "inputs": [
        {
          "indexed": true,
          "internalType": "address",
          "name": "student",
          "type": "address"
        },
        {
          "indexed": false,
          "internalType": "address",
          "name": "teacher",
          "type": "address"
        }
      ],
      "name": "CourseRequestApprovalD",
      "type": "event"
    },
    {
      "anonymous": false,
      "inputs": [
        {
          "indexed": true,
          "internalType": "address",
          "name": "student",
          "type": "address"
        },
        {
          "indexed": false,
          "internalType": "address",
          "name": "teacher",
          "type": "address"
        }
      ],
      "name": "CourseRequestApprovalDD",
      "type": "event"
    },
    {
      "anonymous": false,
      "inputs": [
        {
          "indexed": true,
          "internalType": "address",
          "name": "student",
          "type": "address"
        },
        {
          "indexed": false,
          "internalType": "string",
          "name": "grade",
          "type": "string"
        }
      ],
      "name": "GradeAssigned",
      "type": "event"
    },
    {
      "anonymous": false,
      "inputs": [
        {
          "indexed": true,
          "internalType": "address",
          "name": "student",
          "type": "address"
        },
        {
          "indexed": false,
          "internalType": "string",
          "name": "grade",
          "type": "string"
        }
      ],
      "name": "GradeAssignedA",
      "type": "event"
    },
    {
      "anonymous": false,
      "inputs": [
        {
          "indexed": true,
          "internalType": "address",
          "name": "student",
          "type": "address"
        },
        {
          "indexed": false,
          "internalType": "string",
          "name": "grade",
          "type": "string"
        }
      ],
      "name": "GradeAssignedAA",
      "type": "event"
    },
    {
      "anonymous": false,
      "inputs": [
        {
          "indexed": true,
          "internalType": "address",
          "name": "student",
          "type": "address"
        },
        {
          "indexed": false,
          "internalType": "string",
          "name": "grade",
          "type": "string"
        }
      ],
      "name": "GradeAssignedB",
      "type": "event"
    },
    {
      "anonymous": false,
      "inputs": [
        {
          "indexed": true,
          "internalType": "address",
          "name": "student",
          "type": "address"
        },
        {
          "indexed": false,
          "internalType": "string",
          "name": "grade",
          "type": "string"
        }
      ],
      "name": "GradeAssignedBB",
      "type": "event"
    },
    {
      "anonymous": false,
      "inputs": [
        {
          "indexed": true,
          "internalType": "address",
          "name": "student",
          "type": "address"
        },
        {
          "indexed": false,
          "internalType": "address[]",
          "name": "teachers",
          "type": "address[]"
        }
      ],
      "name": "RequestApproval",
      "type": "event"
    },
    {
      "anonymous": false,
      "inputs": [
        {
          "indexed": true,
          "internalType": "address",
          "name": "student",
          "type": "address"
        },
        {
          "indexed": false,
          "internalType": "address[]",
          "name": "teachers",
          "type": "address[]"
        }
      ],
      "name": "RequestApprovalA",
      "type": "event"
    },
    {
      "anonymous": false,
      "inputs": [
        {
          "indexed": true,
          "internalType": "address",
          "name": "student",
          "type": "address"
        },
        {
          "indexed": false,
          "internalType": "address[]",
          "name": "teachers",
          "type": "address[]"
        }
      ],
      "name": "RequestApprovalAA",
      "type": "event"
    },
    {
      "anonymous": false,
      "inputs": [
        {
          "indexed": true,
          "internalType": "address",
          "name": "student",
          "type": "address"
        },
        {
          "indexed": false,
          "internalType": "address[]",
          "name": "teachers",
          "type": "address[]"
        }
      ],
      "name": "RequestApprovalB",
      "type": "event"
    },
    {
      "anonymous": false,
      "inputs": [
        {
          "indexed": true,
          "internalType": "address",
          "name": "student",
          "type": "address"
        },
        {
          "indexed": false,
          "internalType": "address[]",
          "name": "teachers",
          "type": "address[]"
        }
      ],
      "name": "RequestApprovalBB",
      "type": "event"
    },
    {
      "anonymous": false,
      "inputs": [
        {
          "indexed": true,
          "internalType": "address",
          "name": "student",
          "type": "address"
        },
        {
          "indexed": false,
          "internalType": "address[]",
          "name": "teachers",
          "type": "address[]"
        }
      ],
      "name": "RequestApprovalF",
      "type": "event"
    },
    {
      "anonymous": false,
      "inputs": [
        {
          "indexed": true,
          "internalType": "address",
          "name": "student",
          "type": "address"
        },
        {
          "indexed": false,
          "internalType": "address",
          "name": "teacher",
          "type": "address"
        }
      ],
      "name": "TeacherAdded",
      "type": "event"
    },
    {
      "anonymous": false,
      "inputs": [
        {
          "indexed": true,
          "internalType": "address",
          "name": "student",
          "type": "address"
        },
        {
          "indexed": false,
          "internalType": "address",
          "name": "teacher",
          "type": "address"
        }
      ],
      "name": "TeacherAddedA",
      "type": "event"
    },
    {
      "anonymous": false,
      "inputs": [
        {
          "indexed": true,
          "internalType": "address",
          "name": "student",
          "type": "address"
        },
        {
          "indexed": false,
          "internalType": "address",
          "name": "teacher",
          "type": "address"
        }
      ],
      "name": "TeacherAddedAA",
      "type": "event"
    },
    {
      "anonymous": false,
      "inputs": [
        {
          "indexed": true,
          "internalType": "address",
          "name": "student",
          "type": "address"
        },
        {
          "indexed": false,
          "internalType": "address",
          "name": "teacher",
          "type": "address"
        }
      ],
      "name": "TeacherAddedB",
      "type": "event"
    },
    {
      "anonymous": false,
      "inputs": [
        {
          "indexed": true,
          "internalType": "address",
          "name": "student",
          "type": "address"
        },
        {
          "indexed": false,
          "internalType": "address",
          "name": "teacher",
          "type": "address"
        }
      ],
      "name": "TeacherAddedBB",
      "type": "event"
    },
    {
      "inputs": [
        {
          "internalType": "address[]",
          "name": "teachers",
          "type": "address[]"
        }
      ],
      "name": "requestApproval",
      "outputs": [],
      "stateMutability": "nonpayable",
      "type": "function"
    },
    {
      "inputs": [
        {
          "internalType": "address",
          "name": "student",
          "type": "address"
        }
      ],
      "name": "approveRequest",
      "outputs": [],
      "stateMutability": "nonpayable",
      "type": "function"
    },
    {
      "inputs": [
        {
          "internalType": "address",
          "name": "student",
          "type": "address"
        },
        {
          "internalType": "string",
          "name": "grade",
          "type": "string"
        }
      ],
      "name": "assignGrade",
      "outputs": [],
      "stateMutability": "nonpayable",
      "type": "function"
    },
    {
      "inputs": [
        {
          "internalType": "address",
          "name": "student",
          "type": "address"
        },
        {
          "internalType": "address",
          "name": "newTeacher",
          "type": "address"
        }
      ],
      "name": "addTeacherToRequest",
      "outputs": [],
      "stateMutability": "nonpayable",
      "type": "function"
    },
    {
      "inputs": [
        {
          "internalType": "address",
          "name": "student",
          "type": "address"
        }
      ],
      "name": "getStudentGrade",
      "outputs": [
        {
          "internalType": "string",
          "name": "",
          "type": "string"
        }
      ],
      "stateMutability": "view",
      "type": "function",
      "constant": true
    },
    {
      "inputs": [
        {
          "internalType": "address[]",
          "name": "teachers",
          "type": "address[]"
        }
      ],
      "name": "requestApprovalA",
      "outputs": [],
      "stateMutability": "nonpayable",
      "type": "function"
    },
    {
      "inputs": [
        {
          "internalType": "address",
          "name": "student",
          "type": "address"
        }
      ],
      "name": "approveRequestA",
      "outputs": [],
      "stateMutability": "nonpayable",
      "type": "function"
    },
    {
      "inputs": [
        {
          "internalType": "address",
          "name": "student",
          "type": "address"
        },
        {
          "internalType": "string",
          "name": "grade",
          "type": "string"
        }
      ],
      "name": "assignGradeA",
      "outputs": [],
      "stateMutability": "nonpayable",
      "type": "function"
    },
    {
      "inputs": [
        {
          "internalType": "address",
          "name": "student",
          "type": "address"
        },
        {
          "internalType": "address",
          "name": "newTeacher",
          "type": "address"
        }
      ],
      "name": "addTeacherToRequestA",
      "outputs": [],
      "stateMutability": "nonpayable",
      "type": "function"
    },
    {
      "inputs": [
        {
          "internalType": "address",
          "name": "student",
          "type": "address"
        }
      ],
      "name": "getStudentGradeA",
      "outputs": [
        {
          "internalType": "string",
          "name": "",
          "type": "string"
        }
      ],
      "stateMutability": "view",
      "type": "function",
      "constant": true
    },
    {
      "inputs": [
        {
          "internalType": "address[]",
          "name": "teachers",
          "type": "address[]"
        }
      ],
      "name": "requestApprovalB",
      "outputs": [],
      "stateMutability": "nonpayable",
      "type": "function"
    },
    {
      "inputs": [
        {
          "internalType": "address",
          "name": "student",
          "type": "address"
        }
      ],
      "name": "approveRequestB",
      "outputs": [],
      "stateMutability": "nonpayable",
      "type": "function"
    },
    {
      "inputs": [
        {
          "internalType": "address",
          "name": "student",
          "type": "address"
        },
        {
          "internalType": "string",
          "name": "grade",
          "type": "string"
        }
      ],
      "name": "assignGradeB",
      "outputs": [],
      "stateMutability": "nonpayable",
      "type": "function"
    },
    {
      "inputs": [
        {
          "internalType": "address",
          "name": "student",
          "type": "address"
        },
        {
          "internalType": "address",
          "name": "newTeacher",
          "type": "address"
        }
      ],
      "name": "addTeacherToRequestB",
      "outputs": [],
      "stateMutability": "nonpayable",
      "type": "function"
    },
    {
      "inputs": [
        {
          "internalType": "address",
          "name": "student",
          "type": "address"
        }
      ],
      "name": "getStudentGradeB",
      "outputs": [
        {
          "internalType": "string",
          "name": "",
          "type": "string"
        }
      ],
      "stateMutability": "view",
      "type": "function",
      "constant": true
    },
    {
      "inputs": [
        {
          "internalType": "address[]",
          "name": "teachers",
          "type": "address[]"
        }
      ],
      "name": "requestApprovalAA",
      "outputs": [],
      "stateMutability": "nonpayable",
      "type": "function"
    },
    {
      "inputs": [
        {
          "internalType": "address",
          "name": "student",
          "type": "address"
        }
      ],
      "name": "approveRequestAA",
      "outputs": [],
      "stateMutability": "nonpayable",
      "type": "function"
    },
    {
      "inputs": [
        {
          "internalType": "address",
          "name": "student",
          "type": "address"
        },
        {
          "internalType": "string",
          "name": "grade",
          "type": "string"
        }
      ],
      "name": "assignGradeAA",
      "outputs": [],
      "stateMutability": "nonpayable",
      "type": "function"
    },
    {
      "inputs": [
        {
          "internalType": "address",
          "name": "student",
          "type": "address"
        },
        {
          "internalType": "address",
          "name": "newTeacher",
          "type": "address"
        }
      ],
      "name": "addTeacherToRequestAA",
      "outputs": [],
      "stateMutability": "nonpayable",
      "type": "function"
    },
    {
      "inputs": [
        {
          "internalType": "address",
          "name": "student",
          "type": "address"
        }
      ],
      "name": "getStudentGradeAA",
      "outputs": [
        {
          "internalType": "string",
          "name": "",
          "type": "string"
        }
      ],
      "stateMutability": "view",
      "type": "function",
      "constant": true
    },
    {
      "inputs": [
        {
          "internalType": "address[]",
          "name": "teachers",
          "type": "address[]"
        }
      ],
      "name": "requestApprovalBB",
      "outputs": [],
      "stateMutability": "nonpayable",
      "type": "function"
    },
    {
      "inputs": [
        {
          "internalType": "address",
          "name": "student",
          "type": "address"
        }
      ],
      "name": "approveRequestBB",
      "outputs": [],
      "stateMutability": "nonpayable",
      "type": "function"
    },
    {
      "inputs": [
        {
          "internalType": "address",
          "name": "student",
          "type": "address"
        },
        {
          "internalType": "string",
          "name": "grade",
          "type": "string"
        }
      ],
      "name": "assignGradeBB",
      "outputs": [],
      "stateMutability": "nonpayable",
      "type": "function"
    },
    {
      "inputs": [
        {
          "internalType": "address",
          "name": "student",
          "type": "address"
        },
        {
          "internalType": "address",
          "name": "newTeacher",
          "type": "address"
        }
      ],
      "name": "addTeacherToRequestBB",
      "outputs": [],
      "stateMutability": "nonpayable",
      "type": "function"
    },
    {
      "inputs": [
        {
          "internalType": "address",
          "name": "student",
          "type": "address"
        }
      ],
      "name": "getStudentGradeBB",
      "outputs": [
        {
          "internalType": "string",
          "name": "",
          "type": "string"
        }
      ],
      "stateMutability": "view",
      "type": "function",
      "constant": true
    },
    {
      "inputs": [
        {
          "internalType": "address",
          "name": "teacher",
          "type": "address"
        }
      ],
      "name": "requestCourseApprovalC",
      "outputs": [],
      "stateMutability": "nonpayable",
      "type": "function"
    },
    {
      "inputs": [
        {
          "internalType": "address",
          "name": "student",
          "type": "address"
        }
      ],
      "name": "approveCourseRequestC",
      "outputs": [],
      "stateMutability": "nonpayable",
      "type": "function"
    },
    {
      "inputs": [
        {
          "internalType": "address",
          "name": "student",
          "type": "address"
        }
      ],
      "name": "rejectCourseRequestC",
      "outputs": [],
      "stateMutability": "nonpayable",
      "type": "function"
    },
    {
      "inputs": [
        {
          "internalType": "address",
          "name": "student",
          "type": "address"
        },
        {
          "internalType": "string",
          "name": "grade",
          "type": "string"
        }
      ],
      "name": "assignCourseGradeC",
      "outputs": [],
      "stateMutability": "nonpayable",
      "type": "function"
    },
    {
      "inputs": [
        {
          "internalType": "address",
          "name": "student",
          "type": "address"
        }
      ],
      "name": "getStudentGradeC",
      "outputs": [
        {
          "internalType": "string",
          "name": "",
          "type": "string"
        }
      ],
      "stateMutability": "view",
      "type": "function",
      "constant": true
    },
    {
      "inputs": [
        {
          "internalType": "address",
          "name": "student",
          "type": "address"
        }
      ],
      "name": "getCourseRequestStatusC",
      "outputs": [
        {
          "internalType": "enum School.ApplicationStatusC",
          "name": "",
          "type": "uint8"
        }
      ],
      "stateMutability": "view",
      "type": "function",
      "constant": true
    },
    {
      "inputs": [
        {
          "internalType": "address",
          "name": "teacher",
          "type": "address"
        }
      ],
      "name": "requestCourseApprovalD",
      "outputs": [],
      "stateMutability": "nonpayable",
      "type": "function"
    },
    {
      "inputs": [
        {
          "internalType": "address",
          "name": "student",
          "type": "address"
        }
      ],
      "name": "approveCourseRequestD",
      "outputs": [],
      "stateMutability": "nonpayable",
      "type": "function"
    },
    {
      "inputs": [
        {
          "internalType": "address",
          "name": "student",
          "type": "address"
        }
      ],
      "name": "rejectCourseRequestD",
      "outputs": [],
      "stateMutability": "nonpayable",
      "type": "function"
    },
    {
      "inputs": [
        {
          "internalType": "address",
          "name": "student",
          "type": "address"
        },
        {
          "internalType": "string",
          "name": "grade",
          "type": "string"
        }
      ],
      "name": "assignCourseGradeD",
      "outputs": [],
      "stateMutability": "nonpayable",
      "type": "function"
    },
    {
      "inputs": [
        {
          "internalType": "address",
          "name": "student",
          "type": "address"
        }
      ],
      "name": "getStudentGradeD",
      "outputs": [
        {
          "internalType": "string",
          "name": "",
          "type": "string"
        }
      ],
      "stateMutability": "view",
      "type": "function",
      "constant": true
    },
    {
      "inputs": [
        {
          "internalType": "address",
          "name": "student",
          "type": "address"
        }
      ],
      "name": "getCourseRequestStatusD",
      "outputs": [
        {
          "internalType": "enum School.ApplicationStatusD",
          "name": "",
          "type": "uint8"
        }
      ],
      "stateMutability": "view",
      "type": "function",
      "constant": true
    },
    {
      "inputs": [
        {
          "internalType": "address",
          "name": "teacher",
          "type": "address"
        }
      ],
      "name": "requestCourseApprovalDD",
      "outputs": [],
      "stateMutability": "nonpayable",
      "type": "function"
    },
    {
      "inputs": [
        {
          "internalType": "address",
          "name": "student",
          "type": "address"
        }
      ],
      "name": "approveCourseRequestDD",
      "outputs": [],
      "stateMutability": "nonpayable",
      "type": "function"
    },
    {
      "inputs": [
        {
          "internalType": "address",
          "name": "student",
          "type": "address"
        }
      ],
      "name": "rejectCourseRequestDD",
      "outputs": [],
      "stateMutability": "nonpayable",
      "type": "function"
    },
    {
      "inputs": [
        {
          "internalType": "address",
          "name": "student",
          "type": "address"
        },
        {
          "internalType": "string",
          "name": "grade",
          "type": "string"
        }
      ],
      "name": "assignCourseGradeDD",
      "outputs": [],
      "stateMutability": "nonpayable",
      "type": "function"
    },
    {
      "inputs": [
        {
          "internalType": "address",
          "name": "student",
          "type": "address"
        }
      ],
      "name": "getStudentGradeDD",
      "outputs": [
        {
          "internalType": "string",
          "name": "",
          "type": "string"
        }
      ],
      "stateMutability": "view",
      "type": "function",
      "constant": true
    },
    {
      "inputs": [
        {
          "internalType": "address",
          "name": "student",
          "type": "address"
        }
      ],
      "name": "getCourseRequestStatusDD",
      "outputs": [
        {
          "internalType": "enum School.ApplicationStatusDD",
          "name": "",
          "type": "uint8"
        }
      ],
      "stateMutability": "view",
      "type": "function",
      "constant": true
    },
    {
      "inputs": [
        {
          "internalType": "address[]",
          "name": "teachers",
          "type": "address[]"
        }
      ],
      "name": "requestApprovalF",
      "outputs": [],
      "stateMutability": "nonpayable",
      "type": "function"
    },
    {
      "inputs": [
        {
          "internalType": "address",
          "name": "student",
          "type": "address"
        }
      ],
      "name": "approveRequestF",
      "outputs": [],
      "stateMutability": "nonpayable",
      "type": "function"
    },
    {
      "inputs": [
        {
          "internalType": "address",
          "name": "student",
          "type": "address"
        },
        {
          "internalType": "string",
          "name": "comment",
          "type": "string"
        }
      ],
      "name": "addCommentF",
      "outputs": [],
      "stateMutability": "nonpayable",
      "type": "function"
    },
    {
      "inputs": [
        {
          "internalType": "address",
          "name": "student",
          "type": "address"
        },
        {
          "internalType": "address",
          "name": "teacher",
          "type": "address"
        }
      ],
      "name": "getCommentF",
      "outputs": [
        {
          "internalType": "string",
          "name": "",
          "type": "string"
        }
      ],
      "stateMutability": "view",
      "type": "function",
      "constant": true
    }
  ],
  "bytecode": "0x608060405234801561000f575f80fd5b50615ccd806200001e5f395ff3fe608060405234801561000f575f80fd5b5060043610610293575f3560e01c806390bc9d2911610165578063d8b2a851116100cc578063e8a1611f11610085578063e8a1611f146107c7578063ee5eb134146107e3578063f08233b3146107ff578063fb3700061461082f578063fe8524a41461085f578063fea870401461088f57610293565b8063d8b2a8511461071f578063d9c7cfe31461073b578063de5f414414610757578063e23f09b014610773578063e31c75c31461078f578063e7b9269c146107ab57610293565b8063bb6da72d1161011e578063bb6da72d1461064f578063bfd3444d1461066b578063ccb06c9114610687578063ce5c29cb146106b7578063d27e208b146106d3578063d28c415b1461070357610293565b806390bc9d291461057f5780639f55bd4c1461059b578063a39c8645146105cb578063a848f0fc146105fb578063ad0c1e5914610617578063b0f23ca91461063357610293565b80633678146b116102095780635f062cf5116101c25780635f062cf5146104c357806365da50ba146104df5780636a1aefd51461050f57806373c5c1381461052b57806379a0e5c51461054757806389f1c54b1461056357610293565b80633678146b146104075780633abcf8121461043757806342b4469014610453578063435fa0021461046f5780634d0aa0f51461048b5780635a8b1ec1146104a757610293565b806328966c2c1161025b57806328966c2c1461034b57806328a08b24146103675780632a484f41146103835780632f275f5d1461039f5780633006cbde146103bb578063320287dc146103d757610293565b80630386280f14610297578063061dff9a146102c7578063196183fd146102e35780631f1cbb5a146103135780632678bd781461032f575b5f80fd5b6102b160048036038101906102ac9190614e04565b6108ab565b6040516102be9190614eb9565b60405180910390f35b6102e160048036038101906102dc9190614e04565b610978565b005b6102fd60048036038101906102f89190614e04565b610b39565b60405161030a9190614eb9565b60405180910390f35b61032d60048036038101906103289190614f3a565b610c06565b005b61034960048036038101906103449190614f97565b610d2d565b005b61036560048036038101906103609190614e04565b610e9f565b005b610381600480360381019061037c9190614e04565b611059565b005b61039d60048036038101906103989190614f3a565b611213565b005b6103b960048036038101906103b49190614e04565b6113e3565b005b6103d560048036038101906103d09190614e04565b6115a5565b005b6103f160048036038101906103ec9190614e04565b61175f565b6040516103fe9190614eb9565b60405180910390f35b610421600480360381019061041c9190614e04565b61182c565b60405161042e9190615048565b60405180910390f35b610451600480360381019061044c9190614e04565b611881565b005b61046d60048036038101906104689190614f3a565b611a3b565b005b610489600480360381019061048491906150b6565b611c25565b005b6104a560048036038101906104a091906150b6565b611ccd565b005b6104c160048036038101906104bc9190614f3a565b611d75565b005b6104dd60048036038101906104d89190614e04565b611e9b565b005b6104f960048036038101906104f49190614e04565b61205d565b6040516105069190614eb9565b60405180910390f35b61052960048036038101906105249190614f3a565b61212a565b005b61054560048036038101906105409190614f97565b612251565b005b610561600480360381019061055c9190614e04565b6123c5565b005b61057d600480360381019061057891906150b6565b6125ad565b005b61059960048036038101906105949190614f97565b612655565b005b6105b560048036038101906105b09190614e04565b6127c9565b6040516105c29190614eb9565b60405180910390f35b6105e560048036038101906105e09190614e04565b612896565b6040516105f29190615147565b60405180910390f35b61061560048036038101906106109190614f3a565b6128eb565b005b610631600480360381019061062c9190614e04565b612ad5565b005b61064d60048036038101906106489190614f3a565b612c97565b005b61066960048036038101906106649190614f3a565b612e81565b005b61068560048036038101906106809190614f97565b612fa8565b005b6106a1600480360381019061069c9190614e04565b61311c565b6040516106ae91906151a6565b60405180910390f35b6106d160048036038101906106cc9190614e04565b613171565b005b6106ed60048036038101906106e89190614e04565b61332b565b6040516106fa9190614eb9565b60405180910390f35b61071d60048036038101906107189190614e04565b6133f8565b005b610739600480360381019061073491906150b6565b6135e0565b005b610755600480360381019061075091906150b6565b613688565b005b610771600480360381019061076c9190614e04565b613730565b005b61078d60048036038101906107889190614e04565b6138f2565b005b6107a960048036038101906107a491906150b6565b613aac565b005b6107c560048036038101906107c09190614f3a565b613b53565b005b6107e160048036038101906107dc9190614e04565b613c7a565b005b6107fd60048036038101906107f89190614f97565b613e3c565b005b61081960048036038101906108149190614e04565b613fb0565b6040516108269190614eb9565b60405180910390f35b61084960048036038101906108449190614f97565b61407d565b6040516108569190614eb9565b60405180910390f35b61087960048036038101906108749190614e04565b614189565b6040516108869190614eb9565b60405180910390f35b6108a960048036038101906108a49190614e04565b614256565b005b606060015f8373ffffffffffffffffffffffffffffffffffffffff1673ffffffffffffffffffffffffffffffffffffffff1681526020019081526020015f2080546108f5906151ec565b80601f0160208091040260200160405190810160405280929190818152602001828054610921906151ec565b801561096c5780601f106109435761010080835404028352916020019161096c565b820191905f5260205f20905b81548152906001019060200180831161094f57829003601f168201915b50505050509050919050565b5f805f8373ffffffffffffffffffffffffffffffffffffffff1673ffffffffffffffffffffffffffffffffffffffff1681526020019081526020015f2090506109c1813361443e565b610a00576040517f08c379a00000000000000000000000000000000000000000000000000000000081526004016109f79061528c565b60405180910390fd5b806001015f3373ffffffffffffffffffffffffffffffffffffffff1673ffffffffffffffffffffffffffffffffffffffff1681526020019081526020015f205f9054906101000a900460ff1615610a8c576040517f08c379a0000000000000000000000000000000000000000000000000000000008152600401610a83906152f4565b60405180910390fd5b6001816001015f3373ffffffffffffffffffffffffffffffffffffffff1673ffffffffffffffffffffffffffffffffffffffff1681526020019081526020015f205f6101000a81548160ff021916908315150217905550610aec816144e9565b15610b35578173ffffffffffffffffffffffffffffffffffffffff167f135b662e7c460f01a8962dabbc952859694282ca1f1bfbacf24ebecc00160d3560405160405180910390a25b5050565b6060600d5f8373ffffffffffffffffffffffffffffffffffffffff1673ffffffffffffffffffffffffffffffffffffffff1681526020019081526020015f208054610b83906151ec565b80601f0160208091040260200160405190810160405280929190818152602001828054610baf906151ec565b8015610bfa5780601f10610bd157610100808354040283529160200191610bfa565b820191905f5260205f20905b815481529060010190602001808311610bdd57829003601f168201915b50505050509050919050565b610c4c60085f8573ffffffffffffffffffffffffffffffffffffffff1673ffffffffffffffffffffffffffffffffffffffff1681526020019081526020015f20336145b0565b610c8b576040517f08c379a0000000000000000000000000000000000000000000000000000000008152600401610c8290615382565b60405180910390fd5b818160095f8673ffffffffffffffffffffffffffffffffffffffff1673ffffffffffffffffffffffffffffffffffffffff1681526020019081526020015f209182610cd792919061557d565b508273ffffffffffffffffffffffffffffffffffffffff167feb8e62a50c30f6489be8d50167a3462addc9ad73df8926290e4cec0807f1ea408383604051610d20929190615684565b60405180910390a2505050565b610d725f808473ffffffffffffffffffffffffffffffffffffffff1673ffffffffffffffffffffffffffffffffffffffff1681526020019081526020015f203361443e565b610db1576040517f08c379a0000000000000000000000000000000000000000000000000000000008152600401610da890615716565b60405180910390fd5b5f808373ffffffffffffffffffffffffffffffffffffffff1673ffffffffffffffffffffffffffffffffffffffff1681526020019081526020015f205f0181908060018154018082558091505060019003905f5260205f20015f9091909190916101000a81548173ffffffffffffffffffffffffffffffffffffffff021916908373ffffffffffffffffffffffffffffffffffffffff1602179055508173ffffffffffffffffffffffffffffffffffffffff167f204441003a57494a754a9cb2c784ec3f7735d60cb84147b9c1771a891b56a69c82604051610e939190615743565b60405180910390a25050565b5f600a5f8373ffffffffffffffffffffffffffffffffffffffff1673ffffffffffffffffffffffffffffffffffffffff1681526020019081526020015f2090503373ffffffffffffffffffffffffffffffffffffffff16815f015f9054906101000a900473ffffffffffffffffffffffffffffffffffffffff1673ffffffffffffffffffffffffffffffffffffffff1614610f6f576040517f08c379a0000000000000000000000000000000000000000000000000000000008152600401610f66906157cc565b60405180910390fd5b60016003811115610f8357610f82614fd5565b5b815f0160149054906101000a900460ff166003811115610fa657610fa5614fd5565b5b14610fe6576040517f08c379a0000000000000000000000000000000000000000000000000000000008152600401610fdd90615834565b60405180910390fd5b6003815f0160146101000a81548160ff0219169083600381111561100d5761100c614fd5565b5b02179055508173ffffffffffffffffffffffffffffffffffffffff167fd2798d53033833e061c21c36dca4b7351b3b41480b79668d288a8925ad023a5b60405160405180910390a25050565b5f600e5f8373ffffffffffffffffffffffffffffffffffffffff1673ffffffffffffffffffffffffffffffffffffffff1681526020019081526020015f2090503373ffffffffffffffffffffffffffffffffffffffff16815f015f9054906101000a900473ffffffffffffffffffffffffffffffffffffffff1673ffffffffffffffffffffffffffffffffffffffff1614611129576040517f08c379a0000000000000000000000000000000000000000000000000000000008152600401611120906158c2565b60405180910390fd5b6001600381111561113d5761113c614fd5565b5b815f0160149054906101000a900460ff1660038111156111605761115f614fd5565b5b146111a0576040517f08c379a000000000000000000000000000000000000000000000000000000000815260040161119790615834565b60405180910390fd5b6002815f0160146101000a81548160ff021916908360038111156111c7576111c6614fd5565b5b02179055508173ffffffffffffffffffffffffffffffffffffffff167f0c218bfe1325fbfee0adcfbaecc3e048133f2bb246ad93fb7e21ed34a2b0251460405160405180910390a25050565b5f60105f8573ffffffffffffffffffffffffffffffffffffffff1673ffffffffffffffffffffffffffffffffffffffff1681526020019081526020015f20905061125d813361465b565b61129c576040517f08c379a000000000000000000000000000000000000000000000000000000000815260040161129390615950565b60405180910390fd5b806002015f3373ffffffffffffffffffffffffffffffffffffffff1673ffffffffffffffffffffffffffffffffffffffff1681526020019081526020015f205f9054906101000a900460ff16611327576040517f08c379a000000000000000000000000000000000000000000000000000000000815260040161131e906159de565b60405180910390fd5b8282826001015f3373ffffffffffffffffffffffffffffffffffffffff1673ffffffffffffffffffffffffffffffffffffffff1681526020019081526020015f20918261137592919061557d565b503373ffffffffffffffffffffffffffffffffffffffff168473ffffffffffffffffffffffffffffffffffffffff167f96ba29ba1d6e04ba10788fcdfb40fce224c1c16f4e2a787b5865819cda1164d585856040516113d5929190615684565b60405180910390a350505050565b5f60065f8373ffffffffffffffffffffffffffffffffffffffff1673ffffffffffffffffffffffffffffffffffffffff1681526020019081526020015f20905061142d8133614706565b61146c576040517f08c379a00000000000000000000000000000000000000000000000000000000081526004016114639061528c565b60405180910390fd5b806001015f3373ffffffffffffffffffffffffffffffffffffffff1673ffffffffffffffffffffffffffffffffffffffff1681526020019081526020015f205f9054906101000a900460ff16156114f8576040517f08c379a00000000000000000000000000000000000000000000000000000000081526004016114ef906152f4565b60405180910390fd5b6001816001015f3373ffffffffffffffffffffffffffffffffffffffff1673ffffffffffffffffffffffffffffffffffffffff1681526020019081526020015f205f6101000a81548160ff021916908315150217905550611558816147b1565b156115a1578173ffffffffffffffffffffffffffffffffffffffff167f0a6450ee1867d8fdccb84077e28fe282ffa7eb7ea1c008aba388166b23298b3860405160405180910390a25b5050565b5f600c5f8373ffffffffffffffffffffffffffffffffffffffff1673ffffffffffffffffffffffffffffffffffffffff1681526020019081526020015f2090503373ffffffffffffffffffffffffffffffffffffffff16815f015f9054906101000a900473ffffffffffffffffffffffffffffffffffffffff1673ffffffffffffffffffffffffffffffffffffffff1614611675576040517f08c379a000000000000000000000000000000000000000000000000000000000815260040161166c906157cc565b60405180910390fd5b6001600381111561168957611688614fd5565b5b815f0160149054906101000a900460ff1660038111156116ac576116ab614fd5565b5b146116ec576040517f08c379a00000000000000000000000000000000000000000000000000000000081526004016116e390615834565b60405180910390fd5b6003815f0160146101000a81548160ff0219169083600381111561171357611712614fd5565b5b02179055508173ffffffffffffffffffffffffffffffffffffffff167f81df7b0c58592f04882b796296bee22cf9397cb128a8d5143d5c1212b0e683c260405160405180910390a25050565b606060095f8373ffffffffffffffffffffffffffffffffffffffff1673ffffffffffffffffffffffffffffffffffffffff1681526020019081526020015f2080546117a9906151ec565b80601f01602080910402602001604051908101604052809291908181526020018280546117d5906151ec565b80156118205780601f106117f757610100808354040283529160200191611820565b820191905f5260205f20905b81548152906001019060200180831161180357829003601f168201915b50505050509050919050565b5f600a5f8373ffffffffffffffffffffffffffffffffffffffff1673ffffffffffffffffffffffffffffffffffffffff1681526020019081526020015f205f0160149054906101000a900460ff169050919050565b5f600c5f8373ffffffffffffffffffffffffffffffffffffffff1673ffffffffffffffffffffffffffffffffffffffff1681526020019081526020015f2090503373ffffffffffffffffffffffffffffffffffffffff16815f015f9054906101000a900473ffffffffffffffffffffffffffffffffffffffff1673ffffffffffffffffffffffffffffffffffffffff1614611951576040517f08c379a0000000000000000000000000000000000000000000000000000000008152600401611948906158c2565b60405180910390fd5b6001600381111561196557611964614fd5565b5b815f0160149054906101000a900460ff16600381111561198857611987614fd5565b5b146119c8576040517f08c379a00000000000000000000000000000000000000000000000000000000081526004016119bf90615834565b60405180910390fd5b6002815f0160146101000a81548160ff021916908360038111156119ef576119ee614fd5565b5b02179055508173ffffffffffffffffffffffffffffffffffffffff167f2fc4583fdf9c66581b1ff1a30306b3bcdeb9d1f3bd837545b21d071f084553fc60405160405180910390a25050565b5f600c5f8573ffffffffffffffffffffffffffffffffffffffff1673ffffffffffffffffffffffffffffffffffffffff1681526020019081526020015f2090503373ffffffffffffffffffffffffffffffffffffffff16815f015f9054906101000a900473ffffffffffffffffffffffffffffffffffffffff1673ffffffffffffffffffffffffffffffffffffffff1614611b0b576040517f08c379a0000000000000000000000000000000000000000000000000000000008152600401611b0290615382565b60405180910390fd5b60026003811115611b1f57611b1e614fd5565b5b815f0160149054906101000a900460ff166003811115611b4257611b41614fd5565b5b14611b82576040517f08c379a0000000000000000000000000000000000000000000000000000000008152600401611b7990615a6c565b60405180910390fd5b8282600d5f8773ffffffffffffffffffffffffffffffffffffffff1673ffffffffffffffffffffffffffffffffffffffff1681526020019081526020015f209182611bce92919061557d565b508373ffffffffffffffffffffffffffffffffffffffff167f21d58b8f0ed19ff38448577ae43e5dd28dc7e2033fa993126db8a3aa2c1f5a278484604051611c17929190615684565b60405180910390a250505050565b5f60065f3373ffffffffffffffffffffffffffffffffffffffff1673ffffffffffffffffffffffffffffffffffffffff1681526020019081526020015f2090508282825f019190611c77929190614cea565b503373ffffffffffffffffffffffffffffffffffffffff167fa4c61070d4c75911d382171c39a883315d1f19feeb619becd0b5cab7f6f76b068484604051611cc0929190615b46565b60405180910390a2505050565b5f60085f3373ffffffffffffffffffffffffffffffffffffffff1673ffffffffffffffffffffffffffffffffffffffff1681526020019081526020015f2090508282825f019190611d1f929190614cea565b503373ffffffffffffffffffffffffffffffffffffffff167f861bdc84fe3d56fc2f6a420bafb1a5b06ed6a9781e3f215398866a7611cb41748484604051611d68929190615b46565b60405180910390a2505050565b611dba5f808573ffffffffffffffffffffffffffffffffffffffff1673ffffffffffffffffffffffffffffffffffffffff1681526020019081526020015f203361443e565b611df9576040517f08c379a0000000000000000000000000000000000000000000000000000000008152600401611df090615382565b60405180910390fd5b818160015f8673ffffffffffffffffffffffffffffffffffffffff1673ffffffffffffffffffffffffffffffffffffffff1681526020019081526020015f209182611e4592919061557d565b508273ffffffffffffffffffffffffffffffffffffffff167fb985e1dd664378ed80837e5c5cea748608e873f2df5fa08fafeb9734f15a55048383604051611e8e929190615684565b60405180910390a2505050565b5f60045f8373ffffffffffffffffffffffffffffffffffffffff1673ffffffffffffffffffffffffffffffffffffffff1681526020019081526020015f209050611ee58133614878565b611f24576040517f08c379a0000000000000000000000000000000000000000000000000000000008152600401611f1b9061528c565b60405180910390fd5b806001015f3373ffffffffffffffffffffffffffffffffffffffff1673ffffffffffffffffffffffffffffffffffffffff1681526020019081526020015f205f9054906101000a900460ff1615611fb0576040517f08c379a0000000000000000000000000000000000000000000000000000000008152600401611fa7906152f4565b60405180910390fd5b6001816001015f3373ffffffffffffffffffffffffffffffffffffffff1673ffffffffffffffffffffffffffffffffffffffff1681526020019081526020015f205f6101000a81548160ff02191690831515021790555061201081614923565b15612059578173ffffffffffffffffffffffffffffffffffffffff167fb21a33de8fe04dbcce329b986d588ff4dd1bd80c72dc83e276b40ca415208e4b60405160405180910390a25b5050565b6060600f5f8373ffffffffffffffffffffffffffffffffffffffff1673ffffffffffffffffffffffffffffffffffffffff1681526020019081526020015f2080546120a7906151ec565b80601f01602080910402602001604051908101604052809291908181526020018280546120d3906151ec565b801561211e5780601f106120f55761010080835404028352916020019161211e565b820191905f5260205f20905b81548152906001019060200180831161210157829003601f168201915b50505050509050919050565b61217060065f8573ffffffffffffffffffffffffffffffffffffffff1673ffffffffffffffffffffffffffffffffffffffff1681526020019081526020015f2033614706565b6121af576040517f08c379a00000000000000000000000000000000000000000000000000000000081526004016121a690615382565b60405180910390fd5b818160075f8673ffffffffffffffffffffffffffffffffffffffff1673ffffffffffffffffffffffffffffffffffffffff1681526020019081526020015f2091826121fb92919061557d565b508273ffffffffffffffffffffffffffffffffffffffff167f67201b0783d100f361e02bb1c52d3fd4cf42da2f382fd9375c953c5d43b879578383604051612244929190615684565b60405180910390a2505050565b61229760085f8473ffffffffffffffffffffffffffffffffffffffff1673ffffffffffffffffffffffffffffffffffffffff1681526020019081526020015f20336145b0565b6122d6576040517f08c379a00000000000000000000000000000000000000000000000000000000081526004016122cd90615716565b60405180910390fd5b60085f8373ffffffffffffffffffffffffffffffffffffffff1673ffffffffffffffffffffffffffffffffffffffff1681526020019081526020015f205f0181908060018154018082558091505060019003905f5260205f20015f9091909190916101000a81548173ffffffffffffffffffffffffffffffffffffffff021916908373ffffffffffffffffffffffffffffffffffffffff1602179055508173ffffffffffffffffffffffffffffffffffffffff167f6c1db8768c6dabf293f85486474c930c116bd69e07755ec274ac25e260cb0a82826040516123b99190615743565b60405180910390a25050565b5f60038111156123d8576123d7614fd5565b5b600c5f3373ffffffffffffffffffffffffffffffffffffffff1673ffffffffffffffffffffffffffffffffffffffff1681526020019081526020015f205f0160149054906101000a900460ff16600381111561243757612436614fd5565b5b14612477576040517f08c379a000000000000000000000000000000000000000000000000000000000815260040161246e90615bd8565b60405180910390fd5b80600c5f3373ffffffffffffffffffffffffffffffffffffffff1673ffffffffffffffffffffffffffffffffffffffff1681526020019081526020015f205f015f6101000a81548173ffffffffffffffffffffffffffffffffffffffff021916908373ffffffffffffffffffffffffffffffffffffffff1602179055506001600c5f3373ffffffffffffffffffffffffffffffffffffffff1673ffffffffffffffffffffffffffffffffffffffff1681526020019081526020015f205f0160146101000a81548160ff0219169083600381111561255757612556614fd5565b5b02179055503373ffffffffffffffffffffffffffffffffffffffff167f306f3b20602ff8d9f40e74b8a9f1df6e0c848918638468949add3b565eb90fe4826040516125a29190615743565b60405180910390a250565b5f60105f3373ffffffffffffffffffffffffffffffffffffffff1673ffffffffffffffffffffffffffffffffffffffff1681526020019081526020015f2090508282825f0191906125ff929190614cea565b503373ffffffffffffffffffffffffffffffffffffffff167f05f1516bbd153159d8cfb0a4c711b9b64a3e947fcb625c491f9c87b7def91d958484604051612648929190615b46565b60405180910390a2505050565b61269b60025f8473ffffffffffffffffffffffffffffffffffffffff1673ffffffffffffffffffffffffffffffffffffffff1681526020019081526020015f20336149ea565b6126da576040517f08c379a00000000000000000000000000000000000000000000000000000000081526004016126d190615716565b60405180910390fd5b60025f8373ffffffffffffffffffffffffffffffffffffffff1673ffffffffffffffffffffffffffffffffffffffff1681526020019081526020015f205f0181908060018154018082558091505060019003905f5260205f20015f9091909190916101000a81548173ffffffffffffffffffffffffffffffffffffffff021916908373ffffffffffffffffffffffffffffffffffffffff1602179055508173ffffffffffffffffffffffffffffffffffffffff167f2e8fd5f0318dc9a800ec4fba2263e018727cc76472477ce42ab3d5faee169dda826040516127bd9190615743565b60405180910390a25050565b6060600b5f8373ffffffffffffffffffffffffffffffffffffffff1673ffffffffffffffffffffffffffffffffffffffff1681526020019081526020015f208054612813906151ec565b80601f016020809104026020016040519081016040528092919081815260200182805461283f906151ec565b801561288a5780601f106128615761010080835404028352916020019161288a565b820191905f5260205f20905b81548152906001019060200180831161286d57829003601f168201915b50505050509050919050565b5f600c5f8373ffffffffffffffffffffffffffffffffffffffff1673ffffffffffffffffffffffffffffffffffffffff1681526020019081526020015f205f0160149054906101000a900460ff169050919050565b5f600e5f8573ffffffffffffffffffffffffffffffffffffffff1673ffffffffffffffffffffffffffffffffffffffff1681526020019081526020015f2090503373ffffffffffffffffffffffffffffffffffffffff16815f015f9054906101000a900473ffffffffffffffffffffffffffffffffffffffff1673ffffffffffffffffffffffffffffffffffffffff16146129bb576040517f08c379a00000000000000000000000000000000000000000000000000000000081526004016129b290615382565b60405180910390fd5b600260038111156129cf576129ce614fd5565b5b815f0160149054906101000a900460ff1660038111156129f2576129f1614fd5565b5b14612a32576040517f08c379a0000000000000000000000000000000000000000000000000000000008152600401612a2990615a6c565b60405180910390fd5b8282600f5f8773ffffffffffffffffffffffffffffffffffffffff1673ffffffffffffffffffffffffffffffffffffffff1681526020019081526020015f209182612a7e92919061557d565b508373ffffffffffffffffffffffffffffffffffffffff167f0278fdaa8bb73caa69bcb9275883afbfc4e51a406252f4792ced550e7fff4a6c8484604051612ac7929190615684565b60405180910390a250505050565b5f60085f8373ffffffffffffffffffffffffffffffffffffffff1673ffffffffffffffffffffffffffffffffffffffff1681526020019081526020015f209050612b1f81336145b0565b612b5e576040517f08c379a0000000000000000000000000000000000000000000000000000000008152600401612b559061528c565b60405180910390fd5b806001015f3373ffffffffffffffffffffffffffffffffffffffff1673ffffffffffffffffffffffffffffffffffffffff1681526020019081526020015f205f9054906101000a900460ff1615612bea576040517f08c379a0000000000000000000000000000000000000000000000000000000008152600401612be1906152f4565b60405180910390fd5b6001816001015f3373ffffffffffffffffffffffffffffffffffffffff1673ffffffffffffffffffffffffffffffffffffffff1681526020019081526020015f205f6101000a81548160ff021916908315150217905550612c4a81614a95565b15612c93578173ffffffffffffffffffffffffffffffffffffffff167f916f9fa9e8e47ced4658d551ed1203171944c91e985d614fcde71196dde65ffd60405160405180910390a25b5050565b5f600a5f8573ffffffffffffffffffffffffffffffffffffffff1673ffffffffffffffffffffffffffffffffffffffff1681526020019081526020015f2090503373ffffffffffffffffffffffffffffffffffffffff16815f015f9054906101000a900473ffffffffffffffffffffffffffffffffffffffff1673ffffffffffffffffffffffffffffffffffffffff1614612d67576040517f08c379a0000000000000000000000000000000000000000000000000000000008152600401612d5e90615382565b60405180910390fd5b60026003811115612d7b57612d7a614fd5565b5b815f0160149054906101000a900460ff166003811115612d9e57612d9d614fd5565b5b14612dde576040517f08c379a0000000000000000000000000000000000000000000000000000000008152600401612dd590615a6c565b60405180910390fd5b8282600b5f8773ffffffffffffffffffffffffffffffffffffffff1673ffffffffffffffffffffffffffffffffffffffff1681526020019081526020015f209182612e2a92919061557d565b508373ffffffffffffffffffffffffffffffffffffffff167fe15fd402de383a34edf04a4ba2baf582ca7367486fbc0bce9d80fedcc05e24508484604051612e73929190615684565b60405180910390a250505050565b612ec760045f8573ffffffffffffffffffffffffffffffffffffffff1673ffffffffffffffffffffffffffffffffffffffff1681526020019081526020015f2033614878565b612f06576040517f08c379a0000000000000000000000000000000000000000000000000000000008152600401612efd90615382565b60405180910390fd5b818160055f8673ffffffffffffffffffffffffffffffffffffffff1673ffffffffffffffffffffffffffffffffffffffff1681526020019081526020015f209182612f5292919061557d565b508273ffffffffffffffffffffffffffffffffffffffff167f1ad90776b0d9e66d1aac975f6b86603dd871c1fb79336518d0299266858ee1ce8383604051612f9b929190615684565b60405180910390a2505050565b612fee60045f8473ffffffffffffffffffffffffffffffffffffffff1673ffffffffffffffffffffffffffffffffffffffff1681526020019081526020015f2033614878565b61302d576040517f08c379a000000000000000000000000000000000000000000000000000000000815260040161302490615716565b60405180910390fd5b60045f8373ffffffffffffffffffffffffffffffffffffffff1673ffffffffffffffffffffffffffffffffffffffff1681526020019081526020015f205f0181908060018154018082558091505060019003905f5260205f20015f9091909190916101000a81548173ffffffffffffffffffffffffffffffffffffffff021916908373ffffffffffffffffffffffffffffffffffffffff1602179055508173ffffffffffffffffffffffffffffffffffffffff167f77750ee71fb69a09491e1f793264aed6c70bfac637392b91e8c1990fa11143e6826040516131109190615743565b60405180910390a25050565b5f600e5f8373ffffffffffffffffffffffffffffffffffffffff1673ffffffffffffffffffffffffffffffffffffffff1681526020019081526020015f205f0160149054906101000a900460ff169050919050565b5f600e5f8373ffffffffffffffffffffffffffffffffffffffff1673ffffffffffffffffffffffffffffffffffffffff1681526020019081526020015f2090503373ffffffffffffffffffffffffffffffffffffffff16815f015f9054906101000a900473ffffffffffffffffffffffffffffffffffffffff1673ffffffffffffffffffffffffffffffffffffffff1614613241576040517f08c379a0000000000000000000000000000000000000000000000000000000008152600401613238906157cc565b60405180910390fd5b6001600381111561325557613254614fd5565b5b815f0160149054906101000a900460ff16600381111561327857613277614fd5565b5b146132b8576040517f08c379a00000000000000000000000000000000000000000000000000000000081526004016132af90615834565b60405180910390fd5b6003815f0160146101000a81548160ff021916908360038111156132df576132de614fd5565b5b02179055508173ffffffffffffffffffffffffffffffffffffffff167f9b0252be71918e59b07757198beef3b507559abb88c820e2bb1e8bec86b48dcb60405160405180910390a25050565b606060035f8373ffffffffffffffffffffffffffffffffffffffff1673ffffffffffffffffffffffffffffffffffffffff1681526020019081526020015f208054613375906151ec565b80601f01602080910402602001604051908101604052809291908181526020018280546133a1906151ec565b80156133ec5780601f106133c3576101008083540402835291602001916133ec565b820191905f5260205f20905b8154815290600101906020018083116133cf57829003601f168201915b50505050509050919050565b5f600381111561340b5761340a614fd5565b5b600e5f3373ffffffffffffffffffffffffffffffffffffffff1673ffffffffffffffffffffffffffffffffffffffff1681526020019081526020015f205f0160149054906101000a900460ff16600381111561346a57613469614fd5565b5b146134aa576040517f08c379a00000000000000000000000000000000000000000000000000000000081526004016134a190615bd8565b60405180910390fd5b80600e5f3373ffffffffffffffffffffffffffffffffffffffff1673ffffffffffffffffffffffffffffffffffffffff1681526020019081526020015f205f015f6101000a81548173ffffffffffffffffffffffffffffffffffffffff021916908373ffffffffffffffffffffffffffffffffffffffff1602179055506001600e5f3373ffffffffffffffffffffffffffffffffffffffff1673ffffffffffffffffffffffffffffffffffffffff1681526020019081526020015f205f0160146101000a81548160ff0219169083600381111561358a57613589614fd5565b5b02179055503373ffffffffffffffffffffffffffffffffffffffff167f839a49550d6c5b60fbf2534bb40699fe88b5763e156e9fdc34dd0c4f49334417826040516135d59190615743565b60405180910390a250565b5f60025f3373ffffffffffffffffffffffffffffffffffffffff1673ffffffffffffffffffffffffffffffffffffffff1681526020019081526020015f2090508282825f019190613632929190614cea565b503373ffffffffffffffffffffffffffffffffffffffff167fb5e1d2c128d1a38eab0571f11ba7c1861dccce7e686a2c29e93d2a69619037fb848460405161367b929190615b46565b60405180910390a2505050565b5f60045f3373ffffffffffffffffffffffffffffffffffffffff1673ffffffffffffffffffffffffffffffffffffffff1681526020019081526020015f2090508282825f0191906136da929190614cea565b503373ffffffffffffffffffffffffffffffffffffffff167f3a5b1a517fae5590c0ca6030e531b3653c75a12f1f06180fbf3020926757bc0c8484604051613723929190615b46565b60405180910390a2505050565b5f60025f8373ffffffffffffffffffffffffffffffffffffffff1673ffffffffffffffffffffffffffffffffffffffff1681526020019081526020015f20905061377a81336149ea565b6137b9576040517f08c379a00000000000000000000000000000000000000000000000000000000081526004016137b09061528c565b60405180910390fd5b806001015f3373ffffffffffffffffffffffffffffffffffffffff1673ffffffffffffffffffffffffffffffffffffffff1681526020019081526020015f205f9054906101000a900460ff1615613845576040517f08c379a000000000000000000000000000000000000000000000000000000000815260040161383c906152f4565b60405180910390fd5b6001816001015f3373ffffffffffffffffffffffffffffffffffffffff1673ffffffffffffffffffffffffffffffffffffffff1681526020019081526020015f205f6101000a81548160ff0219169083151502179055506138a581614b5c565b156138ee578173ffffffffffffffffffffffffffffffffffffffff167f18aa802269279979c463982c18d111b257d5a341edd7b51d2649a920de036fb060405160405180910390a25b5050565b5f600a5f8373ffffffffffffffffffffffffffffffffffffffff1673ffffffffffffffffffffffffffffffffffffffff1681526020019081526020015f2090503373ffffffffffffffffffffffffffffffffffffffff16815f015f9054906101000a900473ffffffffffffffffffffffffffffffffffffffff1673ffffffffffffffffffffffffffffffffffffffff16146139c2576040517f08c379a00000000000000000000000000000000000000000000000000000000081526004016139b9906158c2565b60405180910390fd5b600160038111156139d6576139d5614fd5565b5b815f0160149054906101000a900460ff1660038111156139f9576139f8614fd5565b5b14613a39576040517f08c379a0000000000000000000000000000000000000000000000000000000008152600401613a3090615834565b60405180910390fd5b6002815f0160146101000a81548160ff02191690836003811115613a6057613a5f614fd5565b5b02179055508173ffffffffffffffffffffffffffffffffffffffff167f6d9a734ebbd4820f0f7a76656fbc5936e01fd7f5ceef1bede69734a5a32b33a960405160405180910390a25050565b5f805f3373ffffffffffffffffffffffffffffffffffffffff1673ffffffffffffffffffffffffffffffffffffffff1681526020019081526020015f2090508282825f019190613afd929190614cea565b503373ffffffffffffffffffffffffffffffffffffffff167f57eebaf6a4a7bdcd3e1a60dd32681c63d968f8935f596ee7a4523e5fa6c36db68484604051613b46929190615b46565b60405180910390a2505050565b613b9960025f8573ffffffffffffffffffffffffffffffffffffffff1673ffffffffffffffffffffffffffffffffffffffff1681526020019081526020015f20336149ea565b613bd8576040517f08c379a0000000000000000000000000000000000000000000000000000000008152600401613bcf90615382565b60405180910390fd5b818160035f8673ffffffffffffffffffffffffffffffffffffffff1673ffffffffffffffffffffffffffffffffffffffff1681526020019081526020015f209182613c2492919061557d565b508273ffffffffffffffffffffffffffffffffffffffff167fa1933c0b818e7a4323c347fdedcfd86e92e8a178de060ac5527b01fa98a4a96e8383604051613c6d929190615684565b60405180910390a2505050565b5f60105f8373ffffffffffffffffffffffffffffffffffffffff1673ffffffffffffffffffffffffffffffffffffffff1681526020019081526020015f209050613cc4813361465b565b613d03576040517f08c379a0000000000000000000000000000000000000000000000000000000008152600401613cfa9061528c565b60405180910390fd5b806002015f3373ffffffffffffffffffffffffffffffffffffffff1673ffffffffffffffffffffffffffffffffffffffff1681526020019081526020015f205f9054906101000a900460ff1615613d8f576040517f08c379a0000000000000000000000000000000000000000000000000000000008152600401613d86906152f4565b60405180910390fd5b6001816002015f3373ffffffffffffffffffffffffffffffffffffffff1673ffffffffffffffffffffffffffffffffffffffff1681526020019081526020015f205f6101000a81548160ff021916908315150217905550613def81614c23565b15613e38578173ffffffffffffffffffffffffffffffffffffffff167fd4ff7ba2e25da8591f84d88b35b7d7ae1398ce98383d90474f6caff176e7e68160405160405180910390a25b5050565b613e8260065f8473ffffffffffffffffffffffffffffffffffffffff1673ffffffffffffffffffffffffffffffffffffffff1681526020019081526020015f2033614706565b613ec1576040517f08c379a0000000000000000000000000000000000000000000000000000000008152600401613eb890615716565b60405180910390fd5b60065f8373ffffffffffffffffffffffffffffffffffffffff1673ffffffffffffffffffffffffffffffffffffffff1681526020019081526020015f205f0181908060018154018082558091505060019003905f5260205f20015f9091909190916101000a81548173ffffffffffffffffffffffffffffffffffffffff021916908373ffffffffffffffffffffffffffffffffffffffff1602179055508173ffffffffffffffffffffffffffffffffffffffff167f64e1ecc85803a20ad58996c19c57ea71b5257de738143745f105ab85a0af03d682604051613fa49190615743565b60405180910390a25050565b606060075f8373ffffffffffffffffffffffffffffffffffffffff1673ffffffffffffffffffffffffffffffffffffffff1681526020019081526020015f208054613ffa906151ec565b80601f0160208091040260200160405190810160405280929190818152602001828054614026906151ec565b80156140715780601f1061404857610100808354040283529160200191614071565b820191905f5260205f20905b81548152906001019060200180831161405457829003601f168201915b50505050509050919050565b606060105f8473ffffffffffffffffffffffffffffffffffffffff1673ffffffffffffffffffffffffffffffffffffffff1681526020019081526020015f206001015f8373ffffffffffffffffffffffffffffffffffffffff1673ffffffffffffffffffffffffffffffffffffffff1681526020019081526020015f208054614105906151ec565b80601f0160208091040260200160405190810160405280929190818152602001828054614131906151ec565b801561417c5780601f106141535761010080835404028352916020019161417c565b820191905f5260205f20905b81548152906001019060200180831161415f57829003601f168201915b5050505050905092915050565b606060055f8373ffffffffffffffffffffffffffffffffffffffff1673ffffffffffffffffffffffffffffffffffffffff1681526020019081526020015f2080546141d3906151ec565b80601f01602080910402602001604051908101604052809291908181526020018280546141ff906151ec565b801561424a5780601f106142215761010080835404028352916020019161424a565b820191905f5260205f20905b81548152906001019060200180831161422d57829003601f168201915b50505050509050919050565b5f600381111561426957614268614fd5565b5b600a5f3373ffffffffffffffffffffffffffffffffffffffff1673ffffffffffffffffffffffffffffffffffffffff1681526020019081526020015f205f0160149054906101000a900460ff1660038111156142c8576142c7614fd5565b5b14614308576040517f08c379a00000000000000000000000000000000000000000000000000000000081526004016142ff90615bd8565b60405180910390fd5b80600a5f3373ffffffffffffffffffffffffffffffffffffffff1673ffffffffffffffffffffffffffffffffffffffff1681526020019081526020015f205f015f6101000a81548173ffffffffffffffffffffffffffffffffffffffff021916908373ffffffffffffffffffffffffffffffffffffffff1602179055506001600a5f3373ffffffffffffffffffffffffffffffffffffffff1673ffffffffffffffffffffffffffffffffffffffff1681526020019081526020015f205f0160146101000a81548160ff021916908360038111156143e8576143e7614fd5565b5b02179055503373ffffffffffffffffffffffffffffffffffffffff167f74ff87eb585eb1582ae401757bf0a46b90f6bc695bbc61c80987b657dbf2399b826040516144339190615743565b60405180910390a250565b5f805f90505b835f01805490508110156144de578273ffffffffffffffffffffffffffffffffffffffff16845f01828154811061447e5761447d615bf6565b5b905f5260205f20015f9054906101000a900473ffffffffffffffffffffffffffffffffffffffff1673ffffffffffffffffffffffffffffffffffffffff16036144cb5760019150506144e3565b80806144d690615c50565b915050614444565b505f90505b92915050565b5f805f90505b825f01805490508110156145a557826001015f845f01838154811061451757614516615bf6565b5b905f5260205f20015f9054906101000a900473ffffffffffffffffffffffffffffffffffffffff1673ffffffffffffffffffffffffffffffffffffffff1673ffffffffffffffffffffffffffffffffffffffff1681526020019081526020015f205f9054906101000a900460ff16614592575f9150506145ab565b808061459d90615c50565b9150506144ef565b50600190505b919050565b5f805f90505b835f0180549050811015614650578273ffffffffffffffffffffffffffffffffffffffff16845f0182815481106145f0576145ef615bf6565b5b905f5260205f20015f9054906101000a900473ffffffffffffffffffffffffffffffffffffffff1673ffffffffffffffffffffffffffffffffffffffff160361463d576001915050614655565b808061464890615c50565b9150506145b6565b505f90505b92915050565b5f805f90505b835f01805490508110156146fb578273ffffffffffffffffffffffffffffffffffffffff16845f01828154811061469b5761469a615bf6565b5b905f5260205f20015f9054906101000a900473ffffffffffffffffffffffffffffffffffffffff1673ffffffffffffffffffffffffffffffffffffffff16036146e8576001915050614700565b80806146f390615c50565b915050614661565b505f90505b92915050565b5f805f90505b835f01805490508110156147a6578273ffffffffffffffffffffffffffffffffffffffff16845f01828154811061474657614745615bf6565b5b905f5260205f20015f9054906101000a900473ffffffffffffffffffffffffffffffffffffffff1673ffffffffffffffffffffffffffffffffffffffff16036147935760019150506147ab565b808061479e90615c50565b91505061470c565b505f90505b92915050565b5f805f90505b825f018054905081101561486d57826001015f845f0183815481106147df576147de615bf6565b5b905f5260205f20015f9054906101000a900473ffffffffffffffffffffffffffffffffffffffff1673ffffffffffffffffffffffffffffffffffffffff1673ffffffffffffffffffffffffffffffffffffffff1681526020019081526020015f205f9054906101000a900460ff1661485a575f915050614873565b808061486590615c50565b9150506147b7565b50600190505b919050565b5f805f90505b835f0180549050811015614918578273ffffffffffffffffffffffffffffffffffffffff16845f0182815481106148b8576148b7615bf6565b5b905f5260205f20015f9054906101000a900473ffffffffffffffffffffffffffffffffffffffff1673ffffffffffffffffffffffffffffffffffffffff160361490557600191505061491d565b808061491090615c50565b91505061487e565b505f90505b92915050565b5f805f90505b825f01805490508110156149df57826001015f845f01838154811061495157614950615bf6565b5b905f5260205f20015f9054906101000a900473ffffffffffffffffffffffffffffffffffffffff1673ffffffffffffffffffffffffffffffffffffffff1673ffffffffffffffffffffffffffffffffffffffff1681526020019081526020015f205f9054906101000a900460ff166149cc575f9150506149e5565b80806149d790615c50565b915050614929565b50600190505b919050565b5f805f90505b835f0180549050811015614a8a578273ffffffffffffffffffffffffffffffffffffffff16845f018281548110614a2a57614a29615bf6565b5b905f5260205f20015f9054906101000a900473ffffffffffffffffffffffffffffffffffffffff1673ffffffffffffffffffffffffffffffffffffffff1603614a77576001915050614a8f565b8080614a8290615c50565b9150506149f0565b505f90505b92915050565b5f805f90505b825f0180549050811015614b5157826001015f845f018381548110614ac357614ac2615bf6565b5b905f5260205f20015f9054906101000a900473ffffffffffffffffffffffffffffffffffffffff1673ffffffffffffffffffffffffffffffffffffffff1673ffffffffffffffffffffffffffffffffffffffff1681526020019081526020015f205f9054906101000a900460ff16614b3e575f915050614b57565b8080614b4990615c50565b915050614a9b565b50600190505b919050565b5f805f90505b825f0180549050811015614c1857826001015f845f018381548110614b8a57614b89615bf6565b5b905f5260205f20015f9054906101000a900473ffffffffffffffffffffffffffffffffffffffff1673ffffffffffffffffffffffffffffffffffffffff1673ffffffffffffffffffffffffffffffffffffffff1681526020019081526020015f205f9054906101000a900460ff16614c05575f915050614c1e565b8080614c1090615c50565b915050614b62565b50600190505b919050565b5f805f90505b825f0180549050811015614cdf57826002015f845f018381548110614c5157614c50615bf6565b5b905f5260205f20015f9054906101000a900473ffffffffffffffffffffffffffffffffffffffff1673ffffffffffffffffffffffffffffffffffffffff1673ffffffffffffffffffffffffffffffffffffffff1681526020019081526020015f205f9054906101000a900460ff16614ccc575f915050614ce5565b8080614cd790615c50565b915050614c29565b50600190505b919050565b828054828255905f5260205f20908101928215614d76579160200282015b82811115614d7557823573ffffffffffffffffffffffffffffffffffffffff16825f6101000a81548173ffffffffffffffffffffffffffffffffffffffff021916908373ffffffffffffffffffffffffffffffffffffffff16021790555091602001919060010190614d08565b5b509050614d839190614d87565b5090565b5b80821115614d9e575f815f905550600101614d88565b5090565b5f80fd5b5f80fd5b5f73ffffffffffffffffffffffffffffffffffffffff82169050919050565b5f614dd382614daa565b9050919050565b614de381614dc9565b8114614ded575f80fd5b50565b5f81359050614dfe81614dda565b92915050565b5f60208284031215614e1957614e18614da2565b5b5f614e2684828501614df0565b91505092915050565b5f81519050919050565b5f82825260208201905092915050565b5f5b83811015614e66578082015181840152602081019050614e4b565b5f8484015250505050565b5f601f19601f8301169050919050565b5f614e8b82614e2f565b614e958185614e39565b9350614ea5818560208601614e49565b614eae81614e71565b840191505092915050565b5f6020820190508181035f830152614ed18184614e81565b905092915050565b5f80fd5b5f80fd5b5f80fd5b5f8083601f840112614efa57614ef9614ed9565b5b8235905067ffffffffffffffff811115614f1757614f16614edd565b5b602083019150836001820283011115614f3357614f32614ee1565b5b9250929050565b5f805f60408486031215614f5157614f50614da2565b5b5f614f5e86828701614df0565b935050602084013567ffffffffffffffff811115614f7f57614f7e614da6565b5b614f8b86828701614ee5565b92509250509250925092565b5f8060408385031215614fad57614fac614da2565b5b5f614fba85828601614df0565b9250506020614fcb85828601614df0565b9150509250929050565b7f4e487b71000000000000000000000000000000000000000000000000000000005f52602160045260245ffd5b6004811061501357615012614fd5565b5b50565b5f81905061502382615002565b919050565b5f61503282615016565b9050919050565b61504281615028565b82525050565b5f60208201905061505b5f830184615039565b92915050565b5f8083601f84011261507657615075614ed9565b5b8235905067ffffffffffffffff81111561509357615092614edd565b5b6020830191508360208202830111156150af576150ae614ee1565b5b9250929050565b5f80602083850312156150cc576150cb614da2565b5b5f83013567ffffffffffffffff8111156150e9576150e8614da6565b5b6150f585828601615061565b92509250509250929050565b6004811061511257615111614fd5565b5b50565b5f81905061512282615101565b919050565b5f61513182615115565b9050919050565b61514181615127565b82525050565b5f60208201905061515a5f830184615138565b92915050565b6004811061517157615170614fd5565b5b50565b5f81905061518182615160565b919050565b5f61519082615174565b9050919050565b6151a081615186565b82525050565b5f6020820190506151b95f830184615197565b92915050565b7f4e487b71000000000000000000000000000000000000000000000000000000005f52602260045260245ffd5b5f600282049050600182168061520357607f821691505b602082108103615216576152156151bf565b5b50919050565b7f4f6e6c792072657175657374656420746561636865722063616e20617070726f5f8201527f76652e0000000000000000000000000000000000000000000000000000000000602082015250565b5f615276602383614e39565b91506152818261521c565b604082019050919050565b5f6020820190508181035f8301526152a38161526a565b9050919050565b7f546561636865722068617320616c726561647920617070726f7665642e0000005f82015250565b5f6152de601d83614e39565b91506152e9826152aa565b602082019050919050565b5f6020820190508181035f83015261530b816152d2565b9050919050565b7f4f6e6c792061737369676e656420746561636865722063616e2061737369676e5f8201527f2067726164652e00000000000000000000000000000000000000000000000000602082015250565b5f61536c602783614e39565b915061537782615312565b604082019050919050565b5f6020820190508181035f83015261539981615360565b9050919050565b5f82905092915050565b7f4e487b71000000000000000000000000000000000000000000000000000000005f52604160045260245ffd5b5f819050815f5260205f209050919050565b5f6020601f8301049050919050565b5f82821b905092915050565b5f600883026154337fffffffffffffffffffffffffffffffffffffffffffffffffffffffffffffffff826153f8565b61543d86836153f8565b95508019841693508086168417925050509392505050565b5f819050919050565b5f819050919050565b5f61548161547c61547784615455565b61545e565b615455565b9050919050565b5f819050919050565b61549a83615467565b6154ae6154a682615488565b848454615404565b825550505050565b5f90565b6154c26154b6565b6154cd818484615491565b505050565b5b818110156154f0576154e55f826154ba565b6001810190506154d3565b5050565b601f82111561553557615506816153d7565b61550f846153e9565b8101602085101561551e578190505b61553261552a856153e9565b8301826154d2565b50505b505050565b5f82821c905092915050565b5f6155555f198460080261553a565b1980831691505092915050565b5f61556d8383615546565b9150826002028217905092915050565b61558783836153a0565b67ffffffffffffffff8111156155a05761559f6153aa565b5b6155aa82546151ec565b6155b58282856154f4565b5f601f8311600181146155e2575f84156155d0578287013590505b6155da8582615562565b865550615641565b601f1984166155f0866153d7565b5f5b82811015615617578489013582556001820191506020850194506020810190506155f2565b868310156156345784890135615630601f891682615546565b8355505b6001600288020188555050505b50505050505050565b828183375f83830152505050565b5f6156638385614e39565b935061567083858461564a565b61567983614e71565b840190509392505050565b5f6020820190508181035f83015261569d818486615658565b90509392505050565b7f4f6e6c792061737369676e656420746561636865722063616e2061646420616e5f8201527f6f7468657220746561636865722e000000000000000000000000000000000000602082015250565b5f615700602e83614e39565b915061570b826156a6565b604082019050919050565b5f6020820190508181035f83015261572d816156f4565b9050919050565b61573d81614dc9565b82525050565b5f6020820190506157565f830184615734565b92915050565b7f4f6e6c792061737369676e656420746561636865722063616e2072656a6563745f8201527f2e00000000000000000000000000000000000000000000000000000000000000602082015250565b5f6157b6602183614e39565b91506157c18261575c565b604082019050919050565b5f6020820190508181035f8301526157e3816157aa565b9050919050565b7f4170706c69636174696f6e20616c72656164792070726f6365737365642e00005f82015250565b5f61581e601e83614e39565b9150615829826157ea565b602082019050919050565b5f6020820190508181035f83015261584b81615812565b9050919050565b7f4f6e6c792061737369676e656420746561636865722063616e20617070726f765f8201527f652e000000000000000000000000000000000000000000000000000000000000602082015250565b5f6158ac602283614e39565b91506158b782615852565b604082019050919050565b5f6020820190508181035f8301526158d9816158a0565b9050919050565b7f4f6e6c792061737369676e656420746561636865722063616e2061646420636f5f8201527f6d6d656e74732e00000000000000000000000000000000000000000000000000602082015250565b5f61593a602783614e39565b9150615945826158e0565b604082019050919050565b5f6020820190508181035f8301526159678161592e565b9050919050565b7f546561636865722068617320746f20617070726f7665206265666f726520636f5f8201527f6d6d656e74696e672e0000000000000000000000000000000000000000000000602082015250565b5f6159c8602983614e39565b91506159d38261596e565b604082019050919050565b5f6020820190508181035f8301526159f5816159bc565b9050919050565b7f53747564656e74206d75737420626520617070726f76656420746f20617373695f8201527f676e2067726164652e0000000000000000000000000000000000000000000000602082015250565b5f615a56602983614e39565b9150615a61826159fc565b604082019050919050565b5f6020820190508181035f830152615a8381615a4a565b9050919050565b5f82825260208201905092915050565b5f819050919050565b615aac81614dc9565b82525050565b5f615abd8383615aa3565b60208301905092915050565b5f615ad76020840184614df0565b905092915050565b5f602082019050919050565b5f615af68385615a8a565b9350615b0182615a9a565b805f5b85811015615b3957615b168284615ac9565b615b208882615ab2565b9750615b2b83615adf565b925050600181019050615b04565b5085925050509392505050565b5f6020820190508181035f830152615b5f818486615aeb565b90509392505050565b7f4170706c69636174696f6e20686173206e6f74206265656e20757365642062655f8201527f666f72652e20536f206f6b617920746f207573652e0000000000000000000000602082015250565b5f615bc2603583614e39565b9150615bcd82615b68565b604082019050919050565b5f6020820190508181035f830152615bef81615bb6565b9050919050565b7f4e487b71000000000000000000000000000000000000000000000000000000005f52603260045260245ffd5b7f4e487b71000000000000000000000000000000000000000000000000000000005f52601160045260245ffd5b5f615c5a82615455565b91507fffffffffffffffffffffffffffffffffffffffffffffffffffffffffffffffff8203615c8c57615c8b615c23565b5b60018201905091905056fea2646970667358221220b2799770fd6bfd21a2cc971a3860c7f0f1319cb2d5625e6dc646291bc09d7abe64736f6c63430008140033",
  "immutableReferences": {},
  "source": "// SPDX-License-Identifier: MIT\npragma solidity ^0.8.0;\ncontract School {\n    event RequestApproval(address indexed student, address[] teachers);\n    event ApprovalReceived(address indexed student);\n    event GradeAssigned(address indexed student, string grade);\n    event TeacherAdded(address indexed student, address teacher);\n    struct Request {\n        address[] teachers;\n        mapping(address => bool) approvals;\n    } \n    \n    mapping(address => Request) private requests;\n    mapping(address => string) private studentGrades;\n\n    function requestApproval(address[] calldata teachers) external {\n        Request storage newRequest = requests[msg.sender];\n        newRequest.teachers = teachers;\n        emit RequestApproval(msg.sender, teachers);\n    }\n\n    function approveRequest(address student) external {\n        Request storage request = requests[student];\n        require(isTeacher(request, msg.sender), \"Only requested teacher can approve.\");\n        require(!request.approvals[msg.sender], \"Teacher has already approved.\");\n\n        request.approvals[msg.sender] = true;\n\n        if(isApproved(request)) {\n            emit ApprovalReceived(student);\n        }\n    }\n\n    function assignGrade(address student, string calldata grade) external {\n        require(isTeacher(requests[student], msg.sender), \"Only assigned teacher can assign grade.\");\n        studentGrades[student] = grade;\n        emit GradeAssigned(student, grade);\n    }\n\n    function addTeacherToRequest(address student, address newTeacher) external {\n        require(isTeacher(requests[student], msg.sender), \"Only assigned teacher can add another teacher.\");\n        requests[student].teachers.push(newTeacher);\n        emit TeacherAdded(student, newTeacher);\n    }\n\n    function isTeacher(Request storage request, address teacher) private view returns(bool) {\n        for(uint i = 0; i < request.teachers.length; i++) {\n            if(request.teachers[i] == teacher) {\n                return true;\n            }\n        }\n        return false;\n    }\n\n    function isApproved(Request storage request) private view returns(bool) {\n        for(uint i = 0; i < request.teachers.length; i++) {\n            if(!request.approvals[request.teachers[i]]) {\n                return false;\n            }\n        }\n        return true;\n    }\n\n    function getStudentGrade(address student) external view returns (string memory) {\n        return studentGrades[student];\n    }\n\n\n    event RequestApprovalA(address indexed student, address[] teachers);\n    event ApprovalReceivedA(address indexed student);\n    event GradeAssignedA(address indexed student, string grade);\n    event TeacherAddedA(address indexed student, address teacher);\n    struct RequestA {\n        address[] teachers;\n        mapping(address => bool) approvals;\n    } \n    \n    mapping(address => RequestA) private requestsA;\n    mapping(address => string) private studentGradesA;\n\n    function requestApprovalA(address[] calldata teachers) external {\n        RequestA storage newRequestA = requestsA[msg.sender];\n        newRequestA.teachers = teachers;\n        emit RequestApprovalA(msg.sender, teachers);\n    }\n\n    function approveRequestA(address student) external {\n        RequestA storage requestA = requestsA[student];\n        require(isTeacherA(requestA, msg.sender), \"Only requested teacher can approve.\");\n        require(!requestA.approvals[msg.sender], \"Teacher has already approved.\");\n\n        requestA.approvals[msg.sender] = true;\n\n        if(isApprovedA(requestA)) {\n            emit ApprovalReceivedA(student);\n        }\n    }\n\n    function assignGradeA(address student, string calldata grade) external {\n        require(isTeacherA(requestsA[student], msg.sender), \"Only assigned teacher can assign grade.\");\n        studentGradesA[student] = grade;\n        emit GradeAssignedA(student, grade);\n    }\n\n    function addTeacherToRequestA(address student, address newTeacher) external {\n        require(isTeacherA(requestsA[student], msg.sender), \"Only assigned teacher can add another teacher.\");\n        requestsA[student].teachers.push(newTeacher);\n        emit TeacherAddedA(student, newTeacher);\n    }\n\n    function isTeacherA(RequestA storage requestA, address teacher) private view returns(bool) {\n        for(uint i = 0; i < requestA.teachers.length; i++) {\n            if(requestA.teachers[i] == teacher) {\n                return true;\n            }\n        }\n        return false;\n    }\n\n    function isApprovedA(RequestA storage requestA) private view returns(bool) {\n        for(uint i = 0; i < requestA.teachers.length; i++) {\n            if(!requestA.approvals[requestA.teachers[i]]) {\n                return false;\n            }\n        }\n        return true;\n    }\n\n    function getStudentGradeA(address student) external view returns (string memory) {\n        return studentGradesA[student];\n    }\n\n\n    event RequestApprovalB(address indexed student, address[] teachers);\n    event ApprovalReceivedB(address indexed student);\n    event GradeAssignedB(address indexed student, string grade);\n    event TeacherAddedB(address indexed student, address teacher);\n    struct RequestB {\n        address[] teachers;\n        mapping(address => bool) approvals;\n    } \n    \n    mapping(address => RequestB) private requestsB;\n    mapping(address => string) private studentGradesB;\n\n    function requestApprovalB(address[] calldata teachers) external {\n        RequestB storage newRequestB = requestsB[msg.sender];\n        newRequestB.teachers = teachers;\n        emit RequestApprovalB(msg.sender, teachers);\n    }\n\n    function approveRequestB(address student) external {\n        RequestB storage requestB = requestsB[student];\n        require(isTeacherB(requestB, msg.sender), \"Only requested teacher can approve.\");\n        require(!requestB.approvals[msg.sender], \"Teacher has already approved.\");\n\n        requestB.approvals[msg.sender] = true;\n\n        if(isApprovedB(requestB)) {\n            emit ApprovalReceivedB(student);\n        }\n    }\n\n    function assignGradeB(address student, string calldata grade) external {\n        require(isTeacherB(requestsB[student], msg.sender), \"Only assigned teacher can assign grade.\");\n        studentGradesB[student] = grade;\n        emit GradeAssignedB(student, grade);\n    }\n\n    function addTeacherToRequestB(address student, address newTeacher) external {\n        require(isTeacherB(requestsB[student], msg.sender), \"Only assigned teacher can add another teacher.\");\n        requestsB[student].teachers.push(newTeacher);\n        emit TeacherAddedB(student, newTeacher);\n    }\n\n    function isTeacherB(RequestB storage requestB, address teacher) private view returns(bool) {\n        for(uint i = 0; i < requestB.teachers.length; i++) {\n            if(requestB.teachers[i] == teacher) {\n                return true;\n            }\n        }\n        return false;\n    }\n\n    function isApprovedB(RequestB storage requestB) private view returns(bool) {\n        for(uint i = 0; i < requestB.teachers.length; i++) {\n            if(!requestB.approvals[requestB.teachers[i]]) {\n                return false;\n            }\n        }\n        return true;\n    }\n\n    function getStudentGradeB(address student) external view returns (string memory) {\n        return studentGradesB[student];\n    }\n\n\n    event RequestApprovalAA(address indexed student, address[] teachers);\n    event ApprovalReceivedAA(address indexed student);\n    event GradeAssignedAA(address indexed student, string grade);\n    event TeacherAddedAA(address indexed student, address teacher);\n    struct RequestAA {\n        address[] teachers;\n        mapping(address => bool) approvals;\n    } \n    \n    mapping(address => RequestAA) private requestsAA;\n    mapping(address => string) private studentGradesAA;\n\n    function requestApprovalAA(address[] calldata teachers) external {\n        RequestAA storage newRequestAA = requestsAA[msg.sender];\n        newRequestAA.teachers = teachers;\n        emit RequestApprovalAA(msg.sender, teachers);\n    }\n\n    function approveRequestAA(address student) external {\n        RequestAA storage requestAA = requestsAA[student];\n        require(isTeacherAA(requestAA, msg.sender), \"Only requested teacher can approve.\");\n        require(!requestAA.approvals[msg.sender], \"Teacher has already approved.\");\n\n        requestAA.approvals[msg.sender] = true;\n\n        if(isApprovedAA(requestAA)) {\n            emit ApprovalReceivedAA(student);\n        }\n    }\n\n    function assignGradeAA(address student, string calldata grade) external {\n        require(isTeacherAA(requestsAA[student], msg.sender), \"Only assigned teacher can assign grade.\");\n        studentGradesAA[student] = grade;\n        emit GradeAssignedAA(student, grade);\n    }\n\n    function addTeacherToRequestAA(address student, address newTeacher) external {\n        require(isTeacherAA(requestsAA[student], msg.sender), \"Only assigned teacher can add another teacher.\");\n        requestsAA[student].teachers.push(newTeacher);\n        emit TeacherAddedAA(student, newTeacher);\n    }\n\n    function isTeacherAA(RequestAA storage requestAA, address teacher) private view returns(bool) {\n        for(uint i = 0; i < requestAA.teachers.length; i++) {\n            if(requestAA.teachers[i] == teacher) {\n                return true;\n            }\n        }\n        return false;\n    }\n\n    function isApprovedAA(RequestAA storage requestAA) private view returns(bool) {\n        for(uint i = 0; i < requestAA.teachers.length; i++) {\n            if(!requestAA.approvals[requestAA.teachers[i]]) {\n                return false;\n            }\n        }\n        return true;\n    }\n\n    function getStudentGradeAA(address student) external view returns (string memory) {\n        return studentGradesAA[student];\n    }\n\n    event RequestApprovalBB(address indexed student, address[] teachers);\n    event ApprovalReceivedBB(address indexed student);\n    event GradeAssignedBB(address indexed student, string grade);\n    event TeacherAddedBB(address indexed student, address teacher);\n    struct RequestBB {\n        address[] teachers;\n        mapping(address => bool) approvals;\n    } \n    \n    mapping(address => RequestBB) private requestsBB;\n    mapping(address => string) private studentGradesBB;\n\n    function requestApprovalBB(address[] calldata teachers) external {\n        RequestBB storage newRequestBB = requestsBB[msg.sender];\n        newRequestBB.teachers = teachers;\n        emit RequestApprovalBB(msg.sender, teachers);\n    }\n\n    function approveRequestBB(address student) external {\n        RequestBB storage requestBB = requestsBB[student];\n        require(isTeacherBB(requestBB, msg.sender), \"Only requested teacher can approve.\");\n        require(!requestBB.approvals[msg.sender], \"Teacher has already approved.\");\n\n        requestBB.approvals[msg.sender] = true;\n\n        if(isApprovedBB(requestBB)) {\n            emit ApprovalReceivedBB(student);\n        }\n    }\n\n    function assignGradeBB(address student, string calldata grade) external {\n        require(isTeacherBB(requestsBB[student], msg.sender), \"Only assigned teacher can assign grade.\");\n        studentGradesBB[student] = grade;\n        emit GradeAssignedBB(student, grade);\n    }\n\n    function addTeacherToRequestBB(address student, address newTeacher) external {\n        require(isTeacherBB(requestsBB[student], msg.sender), \"Only assigned teacher can add another teacher.\");\n        requestsBB[student].teachers.push(newTeacher);\n        emit TeacherAddedBB(student, newTeacher);\n    }\n\n    function isTeacherBB(RequestBB storage requestBB, address teacher) private view returns(bool) {\n        for(uint i = 0; i < requestBB.teachers.length; i++) {\n            if(requestBB.teachers[i] == teacher) {\n                return true;\n            }\n        }\n        return false;\n    }\n\n    function isApprovedBB(RequestBB storage requestBB) private view returns(bool) {\n        for(uint i = 0; i < requestBB.teachers.length; i++) {\n            if(!requestBB.approvals[requestBB.teachers[i]]) {\n                return false;\n            }\n        }\n        return true;\n    }\n\n    function getStudentGradeBB(address student) external view returns (string memory) {\n        return studentGradesBB[student];\n    }\n\n    event CourseRequestApprovalC(address indexed student, address teacher);\n    event CourseApprovalReceivedC(address indexed student);\n    event CourseApprovalRejectedC(address indexed student);\n    event CourseGradeAssignedC(address indexed student, string grade);\n\n    enum ApplicationStatusC { Beginning, Pending, Approved, Rejected }\n\n\n    struct CourseRequestC {\n        address teacher;\n        ApplicationStatusC status;\n    } \n    \n    mapping(address => CourseRequestC) private courseRequestsC;\n    mapping(address => string) private studentGradesC;\n\n    function requestCourseApprovalC(address teacher) external {\n        //require(teacher != address(0), \"Invalid teacher address\");\n        require(courseRequestsC[msg.sender].status == ApplicationStatusC.Beginning, \"Application has not been used before. So okay to use.\");\n        // require(courseRequestsC[msg.sender].status != ApplicationStatusC.Pending, \"Application already submitted. Can submit application again\");\n        // require(courseRequestsC[msg.sender].status != ApplicationStatusC.Approved, \"Application already approved. Can't apply again\");\n        // require(courseRequestsC[msg.sender].status != ApplicationStatusC.Rejected, \"Application already rejected. Can't apply again\");\n        courseRequestsC[msg.sender].teacher = teacher;\n        courseRequestsC[msg.sender].status = ApplicationStatusC.Pending;\n        emit CourseRequestApprovalC(msg.sender, teacher);\n    }\n\n    function approveCourseRequestC(address student) external {\n        CourseRequestC storage requestC = courseRequestsC[student];\n        require(requestC.teacher == msg.sender, \"Only assigned teacher can approve.\");\n        require(requestC.status == ApplicationStatusC.Pending, \"Application already processed.\");\n\n        requestC.status = ApplicationStatusC.Approved;\n        emit CourseApprovalReceivedC(student);\n    }\n\n    function rejectCourseRequestC(address student) external {\n        CourseRequestC storage requestC = courseRequestsC[student];\n        require(requestC.teacher == msg.sender, \"Only assigned teacher can reject.\");\n        require(requestC.status == ApplicationStatusC.Pending, \"Application already processed.\");\n\n        requestC.status = ApplicationStatusC.Rejected;\n        emit CourseApprovalRejectedC(student);\n    }\n\n    function assignCourseGradeC(address student, string calldata grade) external {\n        CourseRequestC storage requestC = courseRequestsC[student];\n        require(requestC.teacher == msg.sender, \"Only assigned teacher can assign grade.\");\n        require(requestC.status == ApplicationStatusC.Approved, \"Student must be approved to assign grade.\");\n\n        studentGradesC[student]= grade;\n        emit CourseGradeAssignedC(student, grade);\n    }\n\n    function isTeacherC(address teacher, address student) private view returns(bool) {\n        return courseRequestsC[student].teacher == teacher;\n    }\n\n    function getStudentGradeC(address student) external view returns (string memory) {\n        return studentGradesC[student];\n    }\n\n    function getCourseRequestStatusC(address student) external view returns (ApplicationStatusC) {\n        return courseRequestsC[student].status;\n    }\n\n    event CourseRequestApprovalD(address indexed student, address teacher);\n    event CourseApprovalReceivedD(address indexed student);\n    event CourseApprovalRejectedD(address indexed student);\n    event CourseGradeAssignedD(address indexed student, string grade);\n\n    enum ApplicationStatusD { Beginning, Pending, Approved, Rejected }\n\n\n    struct CourseRequestD {\n        address teacher;\n        ApplicationStatusD status;\n    } \n    \n    mapping(address => CourseRequestD) private courseRequestsD;\n    mapping(address => string) private studentGradesD;\n\n    function requestCourseApprovalD(address teacher) external {\n        //require(teacher != address(0), \"Invalid teacher address\");\n        require(courseRequestsD[msg.sender].status == ApplicationStatusD.Beginning, \"Application has not been used before. So okay to use.\");\n        // require(courseRequestsD[msg.sender].status != ApplicationStatusD.Pending, \"Application already submitted. Can submit application again\");\n        // require(courseRequestsD[msg.sender].status != ApplicationStatusD.Approved, \"Application already approved. Can't apply again\");\n        // require(courseRequestsD[msg.sender].status != ApplicationStatusD.Rejected, \"Application already rejected. Can't apply again\");\n        courseRequestsD[msg.sender].teacher = teacher;\n        courseRequestsD[msg.sender].status = ApplicationStatusD.Pending;\n        emit CourseRequestApprovalD(msg.sender, teacher);\n    }\n\n    function approveCourseRequestD(address student) external {\n        CourseRequestD storage requestD = courseRequestsD[student];\n        require(requestD.teacher == msg.sender, \"Only assigned teacher can approve.\");\n        require(requestD.status == ApplicationStatusD.Pending, \"Application already processed.\");\n\n        requestD.status = ApplicationStatusD.Approved;\n        emit CourseApprovalReceivedD(student);\n    }\n\n    function rejectCourseRequestD(address student) external {\n        CourseRequestD storage requestD = courseRequestsD[student];\n        require(requestD.teacher == msg.sender, \"Only assigned teacher can reject.\");\n        require(requestD.status == ApplicationStatusD.Pending, \"Application already processed.\");\n\n        requestD.status = ApplicationStatusD.Rejected;\n        emit CourseApprovalRejectedD(student);\n    }\n\n    function assignCourseGradeD(address student, string calldata grade) external {\n        CourseRequestD storage requestD = courseRequestsD[student];\n        require(requestD.teacher == msg.sender, \"Only assigned teacher can assign grade.\");\n        require(requestD.status == ApplicationStatusD.Approved, \"Student must be approved to assign grade.\");\n\n        studentGradesD[student]= grade;\n        emit CourseGradeAssignedD(student, grade);\n    }\n\n    function isTeacherD(address teacher, address student) private view returns(bool) {\n        return courseRequestsD[student].teacher == teacher;\n    }\n\n    function getStudentGradeD(address student) external view returns (string memory) {\n        return studentGradesD[student];\n    }\n\n    function getCourseRequestStatusD(address student) external view returns (ApplicationStatusD) {\n        return courseRequestsD[student].status;\n    }\n    event CourseRequestApprovalDD(address indexed student, address teacher);\n    event CourseApprovalReceivedDD(address indexed student);\n    event CourseApprovalRejectedDD(address indexed student);\n    event CourseGradeAssignedDD(address indexed student, string grade);\n\n    enum ApplicationStatusDD { Beginning, Pending, Approved, Rejected }\n\n\n    struct CourseRequestDD {\n        address teacher;\n        ApplicationStatusDD status;\n    } \n    \n    mapping(address => CourseRequestDD) private courseRequestsDD;\n    mapping(address => string) private studentGradesDD;\n\n    function requestCourseApprovalDD(address teacher) external {\n        //require(teacher != address(0), \"Invalid teacher address\");\n        require(courseRequestsDD[msg.sender].status == ApplicationStatusDD.Beginning, \"Application has not been used before. So okay to use.\");\n        // require(courseRequestsD[msg.sender].status != ApplicationStatusD.Pending, \"Application already submitted. Can submit application again\");\n        // require(courseRequestsD[msg.sender].status != ApplicationStatusD.Approved, \"Application already approved. Can't apply again\");\n        // require(courseRequestsD[msg.sender].status != ApplicationStatusD.Rejected, \"Application already rejected. Can't apply again\");\n        courseRequestsDD[msg.sender].teacher = teacher;\n        courseRequestsDD[msg.sender].status = ApplicationStatusDD.Pending;\n        emit CourseRequestApprovalDD(msg.sender, teacher);\n    }\n\n    function approveCourseRequestDD(address student) external {\n        CourseRequestDD storage requestDD = courseRequestsDD[student];\n        require(requestDD.teacher == msg.sender, \"Only assigned teacher can approve.\");\n        require(requestDD.status == ApplicationStatusDD.Pending, \"Application already processed.\");\n\n        requestDD.status = ApplicationStatusDD.Approved;\n        emit CourseApprovalReceivedDD(student);\n    }\n\n    function rejectCourseRequestDD(address student) external {\n        CourseRequestDD storage requestDD = courseRequestsDD[student];\n        require(requestDD.teacher == msg.sender, \"Only assigned teacher can reject.\");\n        require(requestDD.status == ApplicationStatusDD.Pending, \"Application already processed.\");\n\n        requestDD.status = ApplicationStatusDD.Rejected;\n        emit CourseApprovalRejectedDD(student);\n    }\n\n    function assignCourseGradeDD(address student, string calldata grade) external {\n        CourseRequestDD storage requestDD = courseRequestsDD[student];\n        require(requestDD.teacher == msg.sender, \"Only assigned teacher can assign grade.\");\n        require(requestDD.status == ApplicationStatusDD.Approved, \"Student must be approved to assign grade.\");\n\n        studentGradesDD[student]= grade;\n        emit CourseGradeAssignedDD(student, grade);\n    }\n\n    function isTeacherDD(address teacher, address student) private view returns(bool) {\n        return courseRequestsDD[student].teacher == teacher;\n    }\n\n    function getStudentGradeDD(address student) external view returns (string memory) {\n        return studentGradesDD[student];\n    }\n\n    function getCourseRequestStatusDD(address student) external view returns (ApplicationStatusDD) {\n        return courseRequestsDD[student].status;\n    }\n\n    event RequestApprovalF(address indexed student, address[] teachers);\n    event ApprovalReceivedF(address indexed student);\n    event CommentAddedF(address indexed student, address indexed teacher, string comment);\n\n    struct RequestF {\n        address[] teachers;\n        mapping(address => string) comments;\n        mapping(address => bool) approvals;\n    } \n    \n    mapping(address => RequestF) private requestsF;\n\n    function requestApprovalF(address[] calldata teachers) external {\n        RequestF storage newRequestF = requestsF[msg.sender];\n        newRequestF.teachers = teachers;\n        emit RequestApprovalF(msg.sender, teachers);\n    }\n\n    function approveRequestF(address student) external {\n        RequestF storage requestF = requestsF[student];\n        require(isTeacherF(requestF, msg.sender), \"Only requested teacher can approve.\");\n        require(!requestF.approvals[msg.sender], \"Teacher has already approved.\");\n\n        requestF.approvals[msg.sender] = true;\n\n        if (isApprovedF(requestF)) {\n            emit ApprovalReceivedF(student);\n        }\n    }\n\n    function addCommentF(address student, string calldata comment) external {\n        RequestF storage requestF = requestsF[student];\n        require(isTeacherF(requestF, msg.sender), \"Only assigned teacher can add comments.\");\n        require(requestF.approvals[msg.sender], \"Teacher has to approve before commenting.\");\n        // Allow teachers to rewrite their comments\n        requestF.comments[msg.sender] = comment;\n\n        emit CommentAddedF(student, msg.sender, comment);\n    }\n\n    function getCommentF(address student, address teacher) external view returns (string memory) {\n        return requestsF[student].comments[teacher];\n    }\n\n    function isTeacherF(RequestF storage requestF, address teacher) private view returns(bool) {\n        for (uint i = 0; i < requestF.teachers.length; i++) {\n            if (requestF.teachers[i] == teacher) {\n                return true;\n            }\n        }\n        return false;\n    }\n\n    function isApprovedF(RequestF storage requestF) private view returns(bool) {\n        for (uint i = 0; i < requestF.teachers.length; i++) {\n            if (!requestF.approvals[requestF.teachers[i]]) {\n                return false;\n            }\n        }\n        return true;\n    \n    }\n\n}\n",
  "sourcePath": "/Users/sirshendu/codes/contract-v2/contracts/School.sol",
  "compiler": {
    "name": "solc",
    "version": "0.8.20+commit.a1b79de6.Emscripten.clang"
  },
  "schemaVersion": "3.4.14",
  "updatedAt": "2023-09-06T10:20:32.964Z",
  "networkType": "ethereum",
  "devdoc": {
    "kind": "dev",
    "methods": {},
    "version": 1
  },
  "userdoc": {
    "kind": "user",
    "methods": {},
    "version": 1
  }
}