{
  "contractName": "School",
  "abi": [
    {
      "anonymous": false,
      "inputs": [
        {
          "indexed": true,
          "internalType": "address",
          "name": "student",
          "type": "address"
        }
      ],
      "name": "ApprovalReceived",
      "type": "event"
    },
    {
      "anonymous": false,
      "inputs": [
        {
          "indexed": true,
          "internalType": "address",
          "name": "student",
          "type": "address"
        },
        {
          "indexed": false,
          "internalType": "address[]",
          "name": "teachers",
          "type": "address[]"
        }
      ],
      "name": "RequestApproval",
      "type": "event"
    },
    {
      "inputs": [
        {
          "internalType": "address[]",
          "name": "teachers",
          "type": "address[]"
        }
      ],
      "name": "requestApproval",
      "outputs": [],
      "stateMutability": "nonpayable",
      "type": "function"
    },
    {
      "inputs": [
        {
          "internalType": "address",
          "name": "student",
          "type": "address"
        }
      ],
      "name": "approveRequest",
      "outputs": [],
      "stateMutability": "nonpayable",
      "type": "function"
    }
  ],
  "bytecode": "0x608060405234801561000f575f80fd5b506108ff8061001d5f395ff3fe608060405234801561000f575f80fd5b5060043610610034575f3560e01c8063061dff9a14610038578063e31c75c314610054575b5f80fd5b610052600480360381019061004d9190610564565b610070565b005b61006e600480360381019061006991906105f0565b610231565b005b5f805f8373ffffffffffffffffffffffffffffffffffffffff1673ffffffffffffffffffffffffffffffffffffffff1681526020019081526020015f2090506100b981336102d8565b6100f8576040517f08c379a00000000000000000000000000000000000000000000000000000000081526004016100ef906106bb565b60405180910390fd5b806001015f3373ffffffffffffffffffffffffffffffffffffffff1673ffffffffffffffffffffffffffffffffffffffff1681526020019081526020015f205f9054906101000a900460ff1615610184576040517f08c379a000000000000000000000000000000000000000000000000000000000815260040161017b90610723565b60405180910390fd5b6001816001015f3373ffffffffffffffffffffffffffffffffffffffff1673ffffffffffffffffffffffffffffffffffffffff1681526020019081526020015f205f6101000a81548160ff0219169083151502179055506101e481610383565b1561022d578173ffffffffffffffffffffffffffffffffffffffff167f135b662e7c460f01a8962dabbc952859694282ca1f1bfbacf24ebecc00160d3560405160405180910390a25b5050565b5f805f3373ffffffffffffffffffffffffffffffffffffffff1673ffffffffffffffffffffffffffffffffffffffff1681526020019081526020015f2090508282825f01919061028292919061044a565b503373ffffffffffffffffffffffffffffffffffffffff167f57eebaf6a4a7bdcd3e1a60dd32681c63d968f8935f596ee7a4523e5fa6c36db684846040516102cb9291906107fd565b60405180910390a2505050565b5f805f90505b835f0180549050811015610378578273ffffffffffffffffffffffffffffffffffffffff16845f0182815481106103185761031761081f565b5b905f5260205f20015f9054906101000a900473ffffffffffffffffffffffffffffffffffffffff1673ffffffffffffffffffffffffffffffffffffffff160361036557600191505061037d565b808061037090610882565b9150506102de565b505f90505b92915050565b5f805f90505b825f018054905081101561043f57826001015f845f0183815481106103b1576103b061081f565b5b905f5260205f20015f9054906101000a900473ffffffffffffffffffffffffffffffffffffffff1673ffffffffffffffffffffffffffffffffffffffff1673ffffffffffffffffffffffffffffffffffffffff1681526020019081526020015f205f9054906101000a900460ff1661042c575f915050610445565b808061043790610882565b915050610389565b50600190505b919050565b828054828255905f5260205f209081019282156104d6579160200282015b828111156104d557823573ffffffffffffffffffffffffffffffffffffffff16825f6101000a81548173ffffffffffffffffffffffffffffffffffffffff021916908373ffffffffffffffffffffffffffffffffffffffff16021790555091602001919060010190610468565b5b5090506104e391906104e7565b5090565b5b808211156104fe575f815f9055506001016104e8565b5090565b5f80fd5b5f80fd5b5f73ffffffffffffffffffffffffffffffffffffffff82169050919050565b5f6105338261050a565b9050919050565b61054381610529565b811461054d575f80fd5b50565b5f8135905061055e8161053a565b92915050565b5f6020828403121561057957610578610502565b5b5f61058684828501610550565b91505092915050565b5f80fd5b5f80fd5b5f80fd5b5f8083601f8401126105b0576105af61058f565b5b8235905067ffffffffffffffff8111156105cd576105cc610593565b5b6020830191508360208202830111156105e9576105e8610597565b5b9250929050565b5f806020838503121561060657610605610502565b5b5f83013567ffffffffffffffff81111561062357610622610506565b5b61062f8582860161059b565b92509250509250929050565b5f82825260208201905092915050565b7f4f6e6c792072657175657374656420746561636865722063616e20617070726f5f8201527f76652e0000000000000000000000000000000000000000000000000000000000602082015250565b5f6106a560238361063b565b91506106b08261064b565b604082019050919050565b5f6020820190508181035f8301526106d281610699565b9050919050565b7f546561636865722068617320616c726561647920617070726f7665642e0000005f82015250565b5f61070d601d8361063b565b9150610718826106d9565b602082019050919050565b5f6020820190508181035f83015261073a81610701565b9050919050565b5f82825260208201905092915050565b5f819050919050565b61076381610529565b82525050565b5f610774838361075a565b60208301905092915050565b5f61078e6020840184610550565b905092915050565b5f602082019050919050565b5f6107ad8385610741565b93506107b882610751565b805f5b858110156107f0576107cd8284610780565b6107d78882610769565b97506107e283610796565b9250506001810190506107bb565b5085925050509392505050565b5f6020820190508181035f8301526108168184866107a2565b90509392505050565b7f4e487b71000000000000000000000000000000000000000000000000000000005f52603260045260245ffd5b7f4e487b71000000000000000000000000000000000000000000000000000000005f52601160045260245ffd5b5f819050919050565b5f61088c82610879565b91507fffffffffffffffffffffffffffffffffffffffffffffffffffffffffffffffff82036108be576108bd61084c565b5b60018201905091905056fea2646970667358221220da91eca7d25aca236ca648e21c9d8f2b9106466bafd868836b201ddfe44a007e64736f6c63430008140033",
  "immutableReferences": {},
  "source": "// SPDX-License-Identifier: MIT\npragma solidity ^0.8.0;\n\ncontract School {\n    event RequestApproval(address indexed student, address[] teachers);\n    event ApprovalReceived(address indexed student);\n\n    struct Request {\n        address[] teachers;\n        mapping(address => bool) approvals;\n    } \n    \n    mapping(address => Request) private requests;\n\n    function requestApproval(address[] calldata teachers) external {\n        Request storage newRequest = requests[msg.sender];\n        newRequest.teachers = teachers;\n        emit RequestApproval(msg.sender, teachers);\n    }\n\n    function approveRequest(address student) external {\n        Request storage request = requests[student];\n        require(isTeacher(request, msg.sender), \"Only requested teacher can approve.\");\n        require(!request.approvals[msg.sender], \"Teacher has already approved.\");\n\n        request.approvals[msg.sender] = true;\n\n        if(isApproved(request)) {\n            emit ApprovalReceived(student);\n        }\n    }\n\n    function isTeacher(Request storage request, address teacher) private view returns(bool) {\n        for(uint i = 0; i < request.teachers.length; i++) {\n            if(request.teachers[i] == teacher) {\n                return true;\n            }\n        }\n        return false;\n    }\n\n    function isApproved(Request storage request) private view returns(bool) {\n        for(uint i = 0; i < request.teachers.length; i++) {\n            if(!request.approvals[request.teachers[i]]) {\n                return false;\n            }\n        }\n        return true;\n    }\n}\n",
  "sourcePath": "/Users/sirshendu/codes/contract-v2/contracts/School.sol",
  "compiler": {
    "name": "solc",
    "version": "0.8.20+commit.a1b79de6.Emscripten.clang"
  },
  "schemaVersion": "3.4.14",
  "updatedAt": "2023-06-20T03:52:25.585Z",
  "networkType": "ethereum",
  "devdoc": {
    "kind": "dev",
    "methods": {},
    "version": 1
  },
  "userdoc": {
    "kind": "user",
    "methods": {},
    "version": 1
  }
}